{
  "_format": "hh-sol-artifact-1",
  "contractName": "REXSushiFarmMarket",
  "sourceName": "contracts/REXSushiFarmMarket.sol",
  "abi": [
    {
      "inputs": [
        {
          "internalType": "address",
          "name": "_owner",
          "type": "address"
        },
        {
          "internalType": "address",
          "name": "_slpAddress",
          "type": "address"
        },
        {
          "internalType": "contract ISuperfluid",
          "name": "_host",
          "type": "address"
        },
        {
          "internalType": "contract IConstantFlowAgreementV1",
          "name": "_cfa",
          "type": "address"
        },
        {
          "internalType": "contract IInstantDistributionAgreementV1",
          "name": "_ida",
          "type": "address"
        },
        {
          "internalType": "string",
          "name": "_registrationKey",
          "type": "string"
        },
        {
          "internalType": "contract IREXReferral",
          "name": "_rexReferral",
          "type": "address"
        }
      ],
      "stateMutability": "nonpayable",
      "type": "constructor"
    },
    {
      "anonymous": false,
      "inputs": [
        {
          "indexed": false,
          "internalType": "uint256",
          "name": "totalAmount",
          "type": "uint256"
        },
        {
          "indexed": false,
          "internalType": "uint256",
          "name": "feeCollected",
          "type": "uint256"
        },
        {
          "indexed": false,
          "internalType": "address",
          "name": "token",
          "type": "address"
        }
      ],
      "name": "Distribution",
      "type": "event"
    },
    {
      "anonymous": false,
      "inputs": [
        {
          "indexed": true,
          "internalType": "address",
          "name": "previousOwner",
          "type": "address"
        },
        {
          "indexed": true,
          "internalType": "address",
          "name": "newOwner",
          "type": "address"
        }
      ],
      "name": "OwnershipTransferred",
      "type": "event"
    },
    {
      "stateMutability": "payable",
      "type": "fallback"
    },
    {
      "inputs": [
        {
          "internalType": "uint256",
          "name": "amount",
          "type": "uint256"
        },
        {
          "internalType": "uint256",
          "name": "deadline",
          "type": "uint256"
        }
      ],
      "name": "_swapAndDeposit",
      "outputs": [
        {
          "internalType": "uint256",
          "name": "",
          "type": "uint256"
        }
      ],
      "stateMutability": "nonpayable",
      "type": "function"
    },
    {
      "inputs": [
        {
          "internalType": "contract ISuperToken",
          "name": "_token",
          "type": "address"
        },
        {
          "internalType": "uint128",
          "name": "_feeRate",
          "type": "uint128"
        },
        {
          "internalType": "uint256",
          "name": "_emissionRate",
          "type": "uint256"
        },
        {
          "internalType": "uint256",
          "name": "_requestId",
          "type": "uint256"
        }
      ],
      "name": "addOutputPool",
      "outputs": [],
      "stateMutability": "nonpayable",
      "type": "function"
    },
    {
      "inputs": [
        {
          "internalType": "contract ISuperToken",
          "name": "_superToken",
          "type": "address"
        },
        {
          "internalType": "address",
          "name": "_agreementClass",
          "type": "address"
        },
        {
          "internalType": "bytes32",
          "name": "",
          "type": "bytes32"
        },
        {
          "internalType": "bytes",
          "name": "_agreementData",
          "type": "bytes"
        },
        {
          "internalType": "bytes",
          "name": "",
          "type": "bytes"
        },
        {
          "internalType": "bytes",
          "name": "_ctx",
          "type": "bytes"
        }
      ],
      "name": "afterAgreementCreated",
      "outputs": [
        {
          "internalType": "bytes",
          "name": "_newCtx",
          "type": "bytes"
        }
      ],
      "stateMutability": "nonpayable",
      "type": "function"
    },
    {
      "inputs": [
        {
          "internalType": "contract ISuperToken",
          "name": "_superToken",
          "type": "address"
        },
        {
          "internalType": "address",
          "name": "",
          "type": "address"
        },
        {
          "internalType": "bytes32",
          "name": "",
          "type": "bytes32"
        },
        {
          "internalType": "bytes",
          "name": "_agreementData",
          "type": "bytes"
        },
        {
          "internalType": "bytes",
          "name": "_cbdata",
          "type": "bytes"
        },
        {
          "internalType": "bytes",
          "name": "_ctx",
          "type": "bytes"
        }
      ],
      "name": "afterAgreementTerminated",
      "outputs": [
        {
          "internalType": "bytes",
          "name": "_newCtx",
          "type": "bytes"
        }
      ],
      "stateMutability": "nonpayable",
      "type": "function"
    },
    {
      "inputs": [
        {
          "internalType": "contract ISuperToken",
          "name": "_superToken",
          "type": "address"
        },
        {
          "internalType": "address",
          "name": "_agreementClass",
          "type": "address"
        },
        {
          "internalType": "bytes32",
          "name": "",
          "type": "bytes32"
        },
        {
          "internalType": "bytes",
          "name": "_agreementData",
          "type": "bytes"
        },
        {
          "internalType": "bytes",
          "name": "_cbdata",
          "type": "bytes"
        },
        {
          "internalType": "bytes",
          "name": "_ctx",
          "type": "bytes"
        }
      ],
      "name": "afterAgreementUpdated",
      "outputs": [
        {
          "internalType": "bytes",
          "name": "_newCtx",
          "type": "bytes"
        }
      ],
      "stateMutability": "nonpayable",
      "type": "function"
    },
    {
      "inputs": [
        {
          "internalType": "contract ISuperToken",
          "name": "_superToken",
          "type": "address"
        },
        {
          "internalType": "address",
          "name": "_agreementClass",
          "type": "address"
        },
        {
          "internalType": "bytes32",
          "name": "",
          "type": "bytes32"
        },
        {
          "internalType": "bytes",
          "name": "_agreementData",
          "type": "bytes"
        },
        {
          "internalType": "bytes",
          "name": "",
          "type": "bytes"
        }
      ],
      "name": "beforeAgreementCreated",
      "outputs": [
        {
          "internalType": "bytes",
          "name": "_cbdata",
          "type": "bytes"
        }
      ],
      "stateMutability": "view",
      "type": "function"
    },
    {
      "inputs": [
        {
          "internalType": "contract ISuperToken",
          "name": "_superToken",
          "type": "address"
        },
        {
          "internalType": "address",
          "name": "_agreementClass",
          "type": "address"
        },
        {
          "internalType": "bytes32",
          "name": "",
          "type": "bytes32"
        },
        {
          "internalType": "bytes",
          "name": "_agreementData",
          "type": "bytes"
        },
        {
          "internalType": "bytes",
          "name": "",
          "type": "bytes"
        }
      ],
      "name": "beforeAgreementTerminated",
      "outputs": [
        {
          "internalType": "bytes",
          "name": "_cbdata",
          "type": "bytes"
        }
      ],
      "stateMutability": "view",
      "type": "function"
    },
    {
      "inputs": [
        {
          "internalType": "contract ISuperToken",
          "name": "_superToken",
          "type": "address"
        },
        {
          "internalType": "address",
          "name": "_agreementClass",
          "type": "address"
        },
        {
          "internalType": "bytes32",
          "name": "",
          "type": "bytes32"
        },
        {
          "internalType": "bytes",
          "name": "_agreementData",
          "type": "bytes"
        },
        {
          "internalType": "bytes",
          "name": "_ctx",
          "type": "bytes"
        }
      ],
      "name": "beforeAgreementUpdated",
      "outputs": [
        {
          "internalType": "bytes",
          "name": "_cbdata",
          "type": "bytes"
        }
      ],
      "stateMutability": "view",
      "type": "function"
    },
    {
      "inputs": [
        {
          "internalType": "bytes",
          "name": "ctx",
          "type": "bytes"
        }
      ],
      "name": "distribute",
      "outputs": [
        {
          "internalType": "bytes",
          "name": "newCtx",
          "type": "bytes"
        }
      ],
      "stateMutability": "nonpayable",
      "type": "function"
    },
    {
      "inputs": [
        {
          "internalType": "address",
          "name": "streamer",
          "type": "address"
        }
      ],
      "name": "emergencyCloseStream",
      "outputs": [],
      "stateMutability": "nonpayable",
      "type": "function"
    },
    {
      "inputs": [],
      "name": "emergencyDrain",
      "outputs": [],
      "stateMutability": "nonpayable",
      "type": "function"
    },
    {
      "inputs": [
        {
          "internalType": "uint256",
          "name": "_requestId",
          "type": "uint256"
        }
      ],
      "name": "getCurrentValue",
      "outputs": [
        {
          "internalType": "bool",
          "name": "_ifRetrieve",
          "type": "bool"
        },
        {
          "internalType": "uint256",
          "name": "_value",
          "type": "uint256"
        },
        {
          "internalType": "uint256",
          "name": "_timestampRetrieved",
          "type": "uint256"
        }
      ],
      "stateMutability": "view",
      "type": "function"
    },
    {
      "inputs": [
        {
          "internalType": "uint32",
          "name": "_index",
          "type": "uint32"
        }
      ],
      "name": "getEmissionRate",
      "outputs": [
        {
          "internalType": "uint256",
          "name": "",
          "type": "uint256"
        }
      ],
      "stateMutability": "view",
      "type": "function"
    },
    {
      "inputs": [
        {
          "internalType": "uint32",
          "name": "_index",
          "type": "uint32"
        }
      ],
      "name": "getFeeRate",
      "outputs": [
        {
          "internalType": "uint128",
          "name": "",
          "type": "uint128"
        }
      ],
      "stateMutability": "view",
      "type": "function"
    },
    {
      "inputs": [
        {
          "internalType": "uint32",
          "name": "_index",
          "type": "uint32"
        },
        {
          "internalType": "address",
          "name": "_streamer",
          "type": "address"
        }
      ],
      "name": "getIDAShares",
      "outputs": [
        {
          "internalType": "bool",
          "name": "_exist",
          "type": "bool"
        },
        {
          "internalType": "bool",
          "name": "_approved",
          "type": "bool"
        },
        {
          "internalType": "uint128",
          "name": "_units",
          "type": "uint128"
        },
        {
          "internalType": "uint256",
          "name": "_pendingDistribution",
          "type": "uint256"
        }
      ],
      "stateMutability": "view",
      "type": "function"
    },
    {
      "inputs": [],
      "name": "getInputToken",
      "outputs": [
        {
          "internalType": "contract ISuperToken",
          "name": "",
          "type": "address"
        }
      ],
      "stateMutability": "view",
      "type": "function"
    },
    {
      "inputs": [],
      "name": "getLastDistributionAt",
      "outputs": [
        {
          "internalType": "uint256",
          "name": "",
          "type": "uint256"
        }
      ],
      "stateMutability": "view",
      "type": "function"
    },
    {
      "inputs": [
        {
          "internalType": "contract ISuperToken",
          "name": "token",
          "type": "address"
        }
      ],
      "name": "getOracleInfo",
      "outputs": [
        {
          "components": [
            {
              "internalType": "uint256",
              "name": "requestId",
              "type": "uint256"
            },
            {
              "internalType": "uint256",
              "name": "usdPrice",
              "type": "uint256"
            },
            {
              "internalType": "uint256",
              "name": "lastUpdatedAt",
              "type": "uint256"
            }
          ],
          "internalType": "struct REXMarket.OracleInfo",
          "name": "",
          "type": "tuple"
        }
      ],
      "stateMutability": "view",
      "type": "function"
    },
    {
      "inputs": [
        {
          "internalType": "uint32",
          "name": "_index",
          "type": "uint32"
        }
      ],
      "name": "getOuputPool",
      "outputs": [
        {
          "components": [
            {
              "internalType": "contract ISuperToken",
              "name": "token",
              "type": "address"
            },
            {
              "internalType": "uint128",
              "name": "feeRate",
              "type": "uint128"
            },
            {
              "internalType": "uint256",
              "name": "emissionRate",
              "type": "uint256"
            }
          ],
          "internalType": "struct REXMarket.OutputPool",
          "name": "",
          "type": "tuple"
        }
      ],
      "stateMutability": "view",
      "type": "function"
    },
    {
      "inputs": [],
      "name": "getRateTolerance",
      "outputs": [
        {
          "internalType": "uint256",
          "name": "",
          "type": "uint256"
        }
      ],
      "stateMutability": "view",
      "type": "function"
    },
    {
      "inputs": [],
      "name": "getRexTokenAddress",
      "outputs": [
        {
          "internalType": "address",
          "name": "",
          "type": "address"
        }
      ],
      "stateMutability": "view",
      "type": "function"
    },
    {
      "inputs": [],
      "name": "getRouter",
      "outputs": [
        {
          "internalType": "address",
          "name": "",
          "type": "address"
        }
      ],
      "stateMutability": "view",
      "type": "function"
    },
    {
      "inputs": [
        {
          "internalType": "address",
          "name": "_streamer",
          "type": "address"
        },
        {
          "internalType": "contract ISuperToken",
          "name": "_token",
          "type": "address"
        }
      ],
      "name": "getStreamRate",
      "outputs": [
        {
          "internalType": "int96",
          "name": "_requesterFlowRate",
          "type": "int96"
        }
      ],
      "stateMutability": "view",
      "type": "function"
    },
    {
      "inputs": [],
      "name": "getTellorOracle",
      "outputs": [
        {
          "internalType": "address",
          "name": "",
          "type": "address"
        }
      ],
      "stateMutability": "view",
      "type": "function"
    },
    {
      "inputs": [],
      "name": "getTotalInflow",
      "outputs": [
        {
          "internalType": "int96",
          "name": "",
          "type": "int96"
        }
      ],
      "stateMutability": "view",
      "type": "function"
    },
    {
      "inputs": [
        {
          "internalType": "bytes",
          "name": "ctx",
          "type": "bytes"
        }
      ],
      "name": "harvest",
      "outputs": [
        {
          "internalType": "bytes",
          "name": "newCtx",
          "type": "bytes"
        }
      ],
      "stateMutability": "nonpayable",
      "type": "function"
    },
    {
      "inputs": [
        {
          "internalType": "contract ISuperToken",
          "name": "_inputToken",
          "type": "address"
        },
        {
          "internalType": "uint256",
          "name": "_rateTolerance",
          "type": "uint256"
        },
        {
          "internalType": "contract ITellor",
          "name": "_tellor",
          "type": "address"
        },
        {
          "internalType": "uint256",
          "name": "_inputTokenRequestId",
          "type": "uint256"
        },
        {
          "internalType": "uint128",
          "name": "_affiliateFee",
          "type": "uint128"
        },
        {
          "internalType": "uint128",
          "name": "_feeRate",
          "type": "uint128"
        }
      ],
      "name": "initializeMarket",
      "outputs": [],
      "stateMutability": "nonpayable",
      "type": "function"
    },
    {
      "inputs": [
        {
          "internalType": "address",
          "name": "_pairToken",
          "type": "address"
        },
        {
          "internalType": "uint256",
          "name": "_pairTokenRequestId",
          "type": "uint256"
        },
        {
          "internalType": "uint256",
          "name": "_poolId",
          "type": "uint256"
        }
      ],
      "name": "initializeSushiFarmMarket",
      "outputs": [],
      "stateMutability": "nonpayable",
      "type": "function"
    },
    {
      "inputs": [],
      "name": "isAppJailed",
      "outputs": [
        {
          "internalType": "bool",
          "name": "",
          "type": "bool"
        }
      ],
      "stateMutability": "view",
      "type": "function"
    },
    {
      "inputs": [],
      "name": "masterChef",
      "outputs": [
        {
          "internalType": "contract IMiniChefV2",
          "name": "",
          "type": "address"
        }
      ],
      "stateMutability": "view",
      "type": "function"
    },
    {
      "inputs": [],
      "name": "maticx",
      "outputs": [
        {
          "internalType": "contract ISuperToken",
          "name": "",
          "type": "address"
        }
      ],
      "stateMutability": "view",
      "type": "function"
    },
    {
      "inputs": [],
      "name": "maticxRequestId",
      "outputs": [
        {
          "internalType": "uint256",
          "name": "",
          "type": "uint256"
        }
      ],
      "stateMutability": "view",
      "type": "function"
    },
    {
      "inputs": [],
      "name": "owner",
      "outputs": [
        {
          "internalType": "address",
          "name": "",
          "type": "address"
        }
      ],
      "stateMutability": "view",
      "type": "function"
    },
    {
      "inputs": [],
      "name": "pairToken",
      "outputs": [
        {
          "internalType": "address",
          "name": "",
          "type": "address"
        }
      ],
      "stateMutability": "view",
      "type": "function"
    },
    {
      "inputs": [],
      "name": "poolId",
      "outputs": [
        {
          "internalType": "uint256",
          "name": "",
          "type": "uint256"
        }
      ],
      "stateMutability": "view",
      "type": "function"
    },
    {
      "inputs": [],
      "name": "renounceOwnership",
      "outputs": [],
      "stateMutability": "nonpayable",
      "type": "function"
    },
    {
      "inputs": [
        {
          "internalType": "uint32",
          "name": "_index",
          "type": "uint32"
        },
        {
          "internalType": "uint128",
          "name": "_emissionRate",
          "type": "uint128"
        }
      ],
      "name": "setEmissionRate",
      "outputs": [],
      "stateMutability": "nonpayable",
      "type": "function"
    },
    {
      "inputs": [
        {
          "internalType": "uint32",
          "name": "_index",
          "type": "uint32"
        },
        {
          "internalType": "uint128",
          "name": "_feeRate",
          "type": "uint128"
        }
      ],
      "name": "setFeeRate",
      "outputs": [],
      "stateMutability": "nonpayable",
      "type": "function"
    },
    {
      "inputs": [
        {
          "internalType": "uint256",
          "name": "_rate",
          "type": "uint256"
        }
      ],
      "name": "setRateTolerance",
      "outputs": [],
      "stateMutability": "nonpayable",
      "type": "function"
    },
    {
      "inputs": [],
      "name": "sushi",
      "outputs": [
        {
          "internalType": "address",
          "name": "",
          "type": "address"
        }
      ],
      "stateMutability": "view",
      "type": "function"
    },
    {
      "inputs": [],
      "name": "sushiRouter",
      "outputs": [
        {
          "internalType": "address",
          "name": "",
          "type": "address"
        }
      ],
      "stateMutability": "view",
      "type": "function"
    },
    {
      "inputs": [],
      "name": "sushix",
      "outputs": [
        {
          "internalType": "contract ISuperToken",
          "name": "",
          "type": "address"
        }
      ],
      "stateMutability": "view",
      "type": "function"
    },
    {
      "inputs": [],
      "name": "sushixRequestId",
      "outputs": [
        {
          "internalType": "uint256",
          "name": "",
          "type": "uint256"
        }
      ],
      "stateMutability": "view",
      "type": "function"
    },
    {
      "inputs": [
        {
          "internalType": "address",
          "name": "newOwner",
          "type": "address"
        }
      ],
      "name": "transferOwnership",
      "outputs": [],
      "stateMutability": "nonpayable",
      "type": "function"
    },
    {
      "inputs": [
        {
          "internalType": "contract ISuperToken",
          "name": "_token",
          "type": "address"
        }
      ],
      "name": "updateTokenPrice",
      "outputs": [],
      "stateMutability": "nonpayable",
      "type": "function"
    },
    {
      "inputs": [],
      "name": "updateTokenPrices",
      "outputs": [],
      "stateMutability": "nonpayable",
      "type": "function"
    }
  ],
  "bytecode": "0x60806040523480156200001157600080fd5b506040516200b1153803806200b1158339810160408190526200003491620003f2565b8685858585856200004533620002ad565b600180546001600160a01b038088166001600160a01b0319928316179092556002805487841690831617905560038054868416908316179055600e8054928416929091169190911790556200009a86620002fd565b815160019015620001135760015460405163bd1c448b60e01b81526001600160a01b039091169063bd1c448b90620000d9908490879060040162000527565b600060405180830381600087803b158015620000f457600080fd5b505af115801562000109573d6000803e3d6000fd5b5050505062000174565b6001546040516315a722b960e31b8152600481018390526001600160a01b039091169063ad3915c890602401600060405180830381600087803b1580156200015a57600080fd5b505af11580156200016f573d6000803e3d6000fd5b505050505b505050505050506000856040516200018c90620003d2565b6001600160a01b039091168152602001604051809103906000f080158015620001b9573d6000803e3d6000fd5b506040516285fc1360e71b81526001600160a01b0389811660048301526012602483015260806044830152600c60848301526b05269636f6368657420534c560a41b60a483015260c06064830152600660c4830152650726578534c560d41b60e4830152919250908216906342fe09809061010401600060405180830381600087803b1580156200024957600080fd5b505af11580156200025e573d6000803e3d6000fd5b5050601180546001600160a01b039094166001600160a01b0319948516179055505060128054909116731b02da8cb0d097eb8d57a175b88c7d8b4799750617905550620005c295505050505050565b600080546001600160a01b038381166001600160a01b0319831681178455604051919092169283917f8be0079c531659141344cd1fd0a4f28419497f9722a3daafe3b4186f6b6457e09190a35050565b6000546001600160a01b031633146200035d5760405162461bcd60e51b815260206004820181905260248201527f4f776e61626c653a2063616c6c6572206973206e6f7420746865206f776e657260448201526064015b60405180910390fd5b6001600160a01b038116620003c45760405162461bcd60e51b815260206004820152602660248201527f4f776e61626c653a206e6577206f776e657220697320746865207a65726f206160448201526564647265737360d01b606482015260840162000354565b620003cf81620002ad565b50565b614d82806200639383390190565b8051620003ed81620005ac565b919050565b600080600080600080600060e0888a0312156200040d578283fd5b87516200041a81620005ac565b60208901519097506200042d81620005ac565b60408901519096506200044081620005ac565b60608901519095506200045381620005ac565b60808901519094506200046681620005ac565b60a08901519093506001600160401b038082111562000483578384fd5b818a0191508a601f83011262000497578384fd5b815181811115620004ac57620004ac62000596565b604051601f8201601f19908116603f01168101908382118183101715620004d757620004d762000596565b816040528281528d6020848701011115620004f0578687fd5b6200050383602083016020880162000563565b80965050505050506200051960c08901620003e0565b905092959891949750929550565b82815260406020820152600082518060408401526200054e81606085016020870162000563565b601f01601f1916919091016060019392505050565b60005b838110156200058057818101518382015260200162000566565b8381111562000590576000848401525b50505050565b634e487b7160e01b600052604160045260246000fd5b6001600160a01b0381168114620003cf57600080fd5b615dc180620005d26000396000f3fe6080604052600436106102685760003560e01c8063827906a911610143578063c24c14e0116100bb578063e52e43da11610077578063e52e43da14610874578063e8e75cbd14610892578063ec2c9c52146108e9578063f19a31c214610911578063f2fde38b14610931578063fe1b09dd1461095157005b8063c24c14e0146107ca578063cda8b1cb146107df578063cdf5bd75146107ff578063ce5c7f6114610814578063d33fcc0814610834578063d86ed3e51461085457005b80638da5cb5b1161010a5780638da5cb5b146106f75780638edfea3a14610715578063b0f479a11461072a578063b9bb022914610748578063bfdb6b0414610768578063c12fc38b146107aa57005b8063827906a91461066557806383688be61461068d578063868ad6da146106ad578063884d1f40146106c25780638d21b593146106e257005b80633fcad964116101e15780635f9e7d771161019d5780635f9e7d771461051857806366dc27b4146105385780636d13582c14610556578063715018a61461057e57806380f8620f1461059357806381dca2b6146105b157005b80633fcad9641461042b578063416c339d1461046857806353c11f9914610490578063575a86b2146104b057806358a61d3d146104d85780635ce81f99146104f857005b806321746615116102305780632174661514610373578063230dbd29146103935780632caac08b146103c057806330d9c915146103d55780633de35b79146103f55780633e0dc34e1461041557005b80630a0879031461026a5780630a1da710146102af5780630c9dfd1e146102dd5780630f2dc3d61461032e57806315843a011461034e575b005b34801561027657600080fd5b50610292736b3595068778dd592e39a122f4f5a5cf09c90fe281565b6040516001600160a01b0390911681526020015b60405180910390f35b3480156102bb57600080fd5b506102cf6102ca366004615517565b610987565b6040519081526020016102a6565b3480156102e957600080fd5b506102fd6102f83660046155de565b611152565b6040516102a69493929190931515845291151560208401526001600160801b03166040830152606082015260800190565b34801561033a57600080fd5b50610268610349366004614e3f565b611211565b34801561035a57600080fd5b506103636113b7565b60405190151581526020016102a6565b34801561037f57600080fd5b5061026861038e366004614e3f565b611438565b34801561039f57600080fd5b506103b36103ae366004615224565b611541565b6040516102a691906156c0565b3480156103cc57600080fd5b506102686116c3565b3480156103e157600080fd5b506103b36103f0366004615189565b611a3f565b34801561040157600080fd5b50600f54610292906001600160a01b031681565b34801561042157600080fd5b506102cf60105481565b34801561043757600080fd5b5061044b61044636600461539e565b611a83565b6040805193151584526020840192909252908201526060016102a6565b34801561047457600080fd5b5061047d611c74565b604051600b9190910b81526020016102a6565b34801561049c57600080fd5b506103b36104ab366004615224565b611cfe565b3480156104bc57600080fd5b50610292730769fd68dfb93167989c6f7254cd0d766fb2841f81565b3480156104e457600080fd5b506102686104f336600461539e565b611fb4565b34801561050457600080fd5b506102686105133660046155f9565b611fe3565b34801561052457600080fd5b506103b3610533366004615189565b612036565b34801561054457600080fd5b506011546001600160a01b0316610292565b34801561056257600080fd5b50610292731b02da8cb0d097eb8d57a175b88c7d8b4799750681565b34801561058a57600080fd5b50610268612174565b34801561059f57600080fd5b506004546001600160a01b0316610292565b3480156105bd57600080fd5b506106316105cc3660046155c4565b60408051606080820183526000808352602080840182905292840181905263ffffffff949094168452600b8252928290208251938401835280546001600160a01b0316845260018101546001600160801b031691840191909152600201549082015290565b6040805182516001600160a01b031681526020808401516001600160801b03169082015291810151908201526060016102a6565b34801561067157600080fd5b50610292733ad736904e9e65189c3000c7dd2c8ac8bb7cd4e381565b34801561069957600080fd5b506102686106a836600461532f565b6121aa565b3480156106b957600080fd5b506102cf605081565b3480156106ce57600080fd5b506103b36106dd366004615189565b612250565b3480156106ee57600080fd5b506007546102cf565b34801561070357600080fd5b506000546001600160a01b0316610292565b34801561072157600080fd5b506102cf600681565b34801561073657600080fd5b506012546001600160a01b0316610292565b34801561075457600080fd5b5061047d610763366004614eaf565b612348565b34801561077457600080fd5b50610788610783366004614e3f565b6123df565b60408051825181526020808401519082015291810151908201526060016102a6565b3480156107b657600080fd5b506103b36107c5366004615079565b612445565b3480156107d657600080fd5b50610268612b7b565b3480156107eb57600080fd5b506102686107fa366004614ec1565b612be0565b34801561080b57600080fd5b506006546102cf565b34801561082057600080fd5b506103b361082f366004615079565b612f0a565b34801561084057600080fd5b5061026861084f3660046152ea565b6133d4565b34801561086057600080fd5b506103b361086f366004615224565b6135b9565b34801561088057600080fd5b506005546001600160a01b0316610292565b34801561089e57600080fd5b506108d16108ad3660046155c4565b63ffffffff166000908152600b60205260409020600101546001600160801b031690565b6040516001600160801b0390911681526020016102a6565b3480156108f557600080fd5b5061029273dab943c03f9e84795dc7bf51ddc71daf0033382b81565b34801561091d57600080fd5b5061026861092c3660046155f9565b613728565b34801561093d57600080fd5b5061026861094c366004614e3f565b61378b565b34801561095d57600080fd5b506102cf61096c3660046155c4565b63ffffffff166000908152600b602052604090206002015490565b600080600560000160009054906101000a90046001600160a01b03166001600160a01b031663ee719bc86040518163ffffffff1660e01b815260040160206040518083038186803b1580156109db57600080fd5b505afa1580156109ef573d6000803e3d6000fd5b505050506040513d601f19601f82011682018060405250810190610a139190614e5b565b600f546005546040516370a0823160e01b81523060048201529293506001600160a01b03918216929116906311bcc81e9082906370a082319060240160206040518083038186803b158015610a6757600080fd5b505afa158015610a7b573d6000803e3d6000fd5b505050506040513d601f19601f82011682018060405250810190610a9f9190615061565b6040518263ffffffff1660e01b8152600401610abd91815260200190565b600060405180830381600087803b158015610ad757600080fd5b505af1158015610aeb573d6000803e3d6000fd5b50506040516370a0823160e01b8152306004820152600092506001600160a01b03851691506370a082319060240160206040518083038186803b158015610b3157600080fd5b505afa158015610b45573d6000803e3d6000fd5b505050506040513d601f19601f82011682018060405250810190610b699190615061565b600f546001600160a01b039081166000908152600a60205260408082206001908101546005549094168352908220015492935091610ba79084615b20565b610bb19190615a47565b90508115610bcf57610bcf8484610bc9600286615a47565b84613823565b6040516370a0823160e01b81523060048201526001600160a01b038516906370a082319060240160206040518083038186803b158015610c0e57600080fd5b505afa158015610c22573d6000803e3d6000fd5b505050506040513d601f19601f82011682018060405250810190610c469190615061565b6040516370a0823160e01b81523060048201529092506000906001600160a01b038516906370a082319060240160206040518083038186803b158015610c8b57600080fd5b505afa158015610c9f573d6000803e3d6000fd5b505050506040513d601f19601f82011682018060405250810190610cc39190615061565b9050600083118015610cd55750600081115b156111475760125460405163095ea7b360e01b81526001600160a01b039182166004820152602481018390529085169063095ea7b390604401602060405180830381600087803b158015610d2857600080fd5b505af1158015610d3c573d6000803e3d6000fd5b505050506040513d601f19601f82011682018060405250810190610d609190614fa0565b50601254600090819081906001600160a01b031663e8e3370089898988868030610d8b42603c615a09565b60405160e08a901b6001600160e01b03191681526001600160a01b039889166004820152968816602488015260448701959095526064860193909352608485019190915260a484015290921660c482015260e481019190915261010401606060405180830381600087803b158015610e0257600080fd5b505af1158015610e16573d6000803e3d6000fd5b505050506040513d601f19601f82011682018060405250810190610e3a9190615597565b9250925092506000601160009054906101000a90046001600160a01b03166001600160a01b031663ee719bc86040518163ffffffff1660e01b815260040160206040518083038186803b158015610e9057600080fd5b505afa158015610ea4573d6000803e3d6000fd5b505050506040513d601f19601f82011682018060405250810190610ec89190614e5b565b6040516370a0823160e01b81523060048201526001600160a01b0391909116906370a082319060240160206040518083038186803b158015610f0957600080fd5b505afa158015610f1d573d6000803e3d6000fd5b505050506040513d601f19601f82011682018060405250810190610f419190615061565b9050601160009054906101000a90046001600160a01b03166001600160a01b031663ee719bc86040518163ffffffff1660e01b815260040160206040518083038186803b158015610f9157600080fd5b505afa158015610fa5573d6000803e3d6000fd5b505050506040513d601f19601f82011682018060405250810190610fc99190614e5b565b60405163095ea7b360e01b8152730769fd68dfb93167989c6f7254cd0d766fb2841f6004820152602481018390526001600160a01b03919091169063095ea7b390604401602060405180830381600087803b15801561102757600080fd5b505af115801561103b573d6000803e3d6000fd5b505050506040513d601f19601f8201168201806040525081019061105f9190614fa0565b50601054604051638dbdbe6d60e01b8152730769fd68dfb93167989c6f7254cd0d766fb2841f91638dbdbe6d9161109d9190859030906004016158ff565b600060405180830381600087803b1580156110b757600080fd5b505af11580156110cb573d6000803e3d6000fd5b505060115460408051600081526020810191829052636fedd90160e11b9091526001600160a01b03909116925063dfdbb2029150611110903090859060248101615690565b600060405180830381600087803b15801561112a57600080fd5b505af115801561113e573d6000803e3d6000fd5b50505050505050505b505050505092915050565b60035463ffffffff83166000818152600b6020526040808220549051635b53405160e01b81526001600160a01b0391821660048201523060248201526044810193909352848116606484015290928392839283921690635b5340519060840160806040518083038186803b1580156111c957600080fd5b505afa1580156111dd573d6000803e3d6000fd5b505050506040513d601f19601f820116820180604052508101906112019190614fba565b9299919850965090945092505050565b600154604051636b4f333560e01b81523060048201526000916001600160a01b031690636b4f33359060240160206040518083038186803b15801561125557600080fd5b505afa158015611269573d6000803e3d6000fd5b505050506040513d601f19601f8201168201806040525081019061128d9190614fa0565b9050806112cb5760405162461bcd60e51b8152602060048201526007602482015266085a985a5b195960ca1b60448201526064015b60405180910390fd5b6001546002546005546040805160008152602081019091526001600160a01b03938416936339255d5b93811692635a5999e360e11b92611316929091169088903090604481016157a4565b60408051601f198184030181529181526020820180516001600160e01b03166001600160e01b03199485161790525160e085901b909216825261135c92916004016156d3565b600060405180830381600087803b15801561137657600080fd5b505af115801561138a573d6000803e3d6000fd5b505050506040513d6000823e601f3d908101601f191682016040526113b291908101906150f7565b505050565b600154604051636b4f333560e01b81523060048201526000916001600160a01b031690636b4f33359060240160206040518083038186803b1580156113fb57600080fd5b505afa15801561140f573d6000803e3d6000fd5b505050506040513d601f19601f820116820180604052508101906114339190614fa0565b905090565b61145f604051806040016040528060058152602001643a37b5b2b760d91b8152508261395e565b6001600160a01b0381166000908152600a60205260408120548190819061148590611a83565b925092509250826114cb5760405162461bcd60e51b815260206004820152601060248201526f2167657443757272656e7456616c756560801b60448201526064016112c2565b6114d7610e1042615bb6565b8110156115165760405162461bcd60e51b815260206004820152600d60248201526c2163757272656e7456616c756560981b60448201526064016112c2565b6001600160a01b039093166000908152600a6020526040902060018101919091556002019190915550565b60606115796040518060400160405280601581526020017418599d195c9059dc99595b595b9d155c19185d1959605a1b8152506139a7565b6115816139ea565b61158b8a8a613a2c565b6005546001600160a01b038b811691161415806115ae57506115ac89613b05565b155b156115f25782828080601f0160208091040260200160405190810160405280939291908181526020018383808284376000920191909152509293506116b692505050565b82828080601f016020809104026020016040519081016040528093929190818152602001838380828437600092018290525093945083925061163991508a9050898e613ba0565b509092509050600061164d8789018961539e565b9050611657613c4e565b156116685761166584612445565b93505b60006040518060800160405280856001600160a01b0316815260200183600b0b815260200184600b0b81526020018f6001600160a01b031681525090506116af8582613da8565b9450505050505b9998505050505050505050565b6000546001600160a01b031633146116ed5760405162461bcd60e51b81526004016112c2906158ca565b60025460055460405163e8e7e2d160e01b81526001600160a01b03918216600482015230602482015291169063e8e7e2d19060440160206040518083038186803b15801561173a57600080fd5b505afa15801561174e573d6000803e3d6000fd5b505050506040513d601f19601f8201168201806040525081019061177291906153b6565b600b0b156117b35760405162461bcd60e51b815260206004820152600e60248201526d217a65726f53747265616d65727360901b60448201526064016112c2565b6005546001600160a01b031663a9059cbb6117d66000546001600160a01b031690565b6005546040516370a0823160e01b81523060048201526001600160a01b03909116906370a082319060240160206040518083038186803b15801561181957600080fd5b505afa15801561182d573d6000803e3d6000fd5b505050506040513d601f19601f820116820180604052508101906118519190615061565b6040516001600160e01b031960e085901b1681526001600160a01b0390921660048301526024820152604401602060405180830381600087803b15801561189757600080fd5b505af11580156118ab573d6000803e3d6000fd5b505050506040513d601f19601f820116820180604052508101906118cf9190614fa0565b5060005b600d5460ff1663ffffffff82161015611a3c5763ffffffff81166000908152600b60205260409020546001600160a01b031663a9059cbb61191c6000546001600160a01b031690565b63ffffffff84166000908152600b6020526040908190205490516370a0823160e01b81523060048201526001600160a01b03909116906370a082319060240160206040518083038186803b15801561197357600080fd5b505afa158015611987573d6000803e3d6000fd5b505050506040513d601f19601f820116820180604052508101906119ab9190615061565b6040516001600160e01b031960e085901b1681526001600160a01b0390921660048301526024820152604401602060405180830381600087803b1580156119f157600080fd5b505af1158015611a05573d6000803e3d6000fd5b505050506040513d601f19601f82011682018060405250810190611a299190614fa0565b5080611a3481615c25565b9150506118d3565b50565b6060611a78604051806040016040528060168152602001751899599bdc995059dc99595b595b9d10dc99585d195960521b8152506139a7565b979650505050505050565b6000806000611ab46040518060400160405280600a81526020016917dc995c5d595cdd125960b21b81525085613f70565b600480546040516311bbb87160e21b81529182018690526000916001600160a01b03909116906346eee1c49060240160206040518083038186803b158015611afb57600080fd5b505afa158015611b0f573d6000803e3d6000fd5b505050506040513d601f19601f82011682018060405250810190611b339190615061565b6004549091506001600160a01b03166377fbb66386611b53600185615bb6565b6040516001600160e01b031960e085901b1681526004810192909252602482015260440160206040518083038186803b158015611b8f57600080fd5b505afa158015611ba3573d6000803e3d6000fd5b505050506040513d601f19601f82011682018060405250810190611bc79190615061565b600480546040516393fa491560e01b81529294506001600160a01b0316916393fa491591611c02918991879101918252602082015260400190565b60206040518083038186803b158015611c1a57600080fd5b505afa158015611c2e573d6000803e3d6000fd5b505050506040513d601f19601f82011682018060405250810190611c529190615061565b92508215611c64576001935050611c6d565b60008093509350505b9193909250565b60025460055460405163e8e7e2d160e01b81526001600160a01b039182166004820152306024820152600092919091169063e8e7e2d19060440160206040518083038186803b158015611cc657600080fd5b505afa158015611cda573d6000803e3d6000fd5b505050506040513d601f19601f8201168201806040525081019061143391906153b6565b6060611d296040518060400160405280600781526020016619d85cd319599d60ca1b8152505a613f70565b611d316139ea565b611d6f6040518060400160405280601881526020017f616674657241677265656d656e745465726d696e6174656400000000000000008152506139a7565b82828080601f0160208091040260200160405190810160405280939291908181526020018383808284376000920182905250939450611db49250505087890189614e77565b509050600080611dc687890189615517565b9150915060006040518060800160405280856001600160a01b0316815260200183600b0b81526020016000600b0b81526020018f6001600160a01b03168152509050611e128582613da8565b9450611e456040518060400160405280600f81526020016e17dd5b9a5b9d995cdd105b5bdd5b9d608a1b81525084613f70565b60408051808201825260098152683130b630b731b2a7b360b91b602082015260055491516370a0823160e01b8152306004820152611ee6926001600160a01b0316906370a08231906024015b60206040518083038186803b158015611ea957600080fd5b505afa158015611ebd573d6000803e3d6000fd5b505050506040513d601f19601f82011682018060405250810190611ee19190615061565b613f70565b6005546040516323b872dd60e01b81523060048201526001600160a01b03868116602483015260448201869052909116906323b872dd90606401602060405180830381600087803b158015611f3a57600080fd5b505af1158015611f4e573d6000803e3d6000fd5b505050506040513d601f19601f82011682018060405250810190611f729190614fa0565b50611fa36040518060400160405280600f81526020016e5f6166746572466c6f77526174653360881b8152506139a7565b505050509998505050505050505050565b6000546001600160a01b03163314611fde5760405162461bcd60e51b81526004016112c2906158ca565b600755565b6000546001600160a01b0316331461200d5760405162461bcd60e51b81526004016112c2906158ca565b63ffffffff9091166000908152600b602052604090206001600160801b03909116600290910155565b60606120766040518060400160405280601981526020017f6265666f726541677265656d656e745465726d696e61746564000000000000008152506139a7565b61209f6040518060400160405280600781526020016619d85cdb19599d60ca1b8152505a613f70565b6120a76139ea565b6120b18888613a2c565b60008060006120c188888d613ba0565b92509250925060006120e782846bffffffffffffffffffffffff16600560010154613fb5565b90508083600b0b604051602001612108929190918252602082015260400190565b60408051808303601f19018152828201825260098352683130b630b731b2a7b360b91b602084015260055491516370a0823160e01b815230600482015290975061216592916001600160a01b0316906370a0823190602401611e91565b50505050979650505050505050565b6000546001600160a01b0316331461219e5760405162461bcd60e51b81526004016112c2906158ca565b6121a86000614022565b565b6000546001600160a01b031633146121d45760405162461bcd60e51b81526004016112c2906158ca565b6121e2868686868686614072565b6011546121fe906001600160a01b0316614e206000604d6133d4565b61222373dab943c03f9e84795dc7bf51ddc71daf0033382b62030d406000604e6133d4565b612248733ad736904e9e65189c3000c7dd2c8ac8bb7cd4e362030d40600060066133d4565b505050505050565b606061226a886005546001600160a01b0391821691161490565b158061227c575061227a87613b05565b155b156122c05782828080601f016020809104026020016040519081016040528093929190818152602001838380828437600092019190915250929350611a7892505050565b60006122cd86868b613ba0565b509150506122fe60405180604001604052806008815260200167666c6f775261746560c01b81525082600b0b613f70565b60408051600b83900b60208201520160408051601f198184030181528282019091526004825263446f6e6560e01b6020830152925061233c906139a7565b50979650505050505050565b600254604051631cd43d1160e31b81526001600160a01b0383811660048301528481166024830152306044830152600092169063e6a1e8889060640160806040518083038186803b15801561239c57600080fd5b505afa1580156123b0573d6000803e3d6000fd5b505050506040513d601f19601f820116820180604052508101906123d49190615538565b509095945050505050565b61240360405180606001604052806000815260200160008152602001600081525090565b506001600160a01b03166000908152600a6020908152604091829020825160608101845281548152600182015492810192909252600201549181019190915290565b80612452610e1042615bb6565b6005546001600160a01b03166000908152600a602052604090206002015410156124ae5760405162461bcd60e51b815260206004820152600d60248201526c2163757272656e7456616c756560981b60448201526064016112c2565b6005546040516370a0823160e01b8152306004820152612537916001600160a01b0316906370a082319060240160206040518083038186803b1580156124f357600080fd5b505afa158015612507573d6000803e3d6000fd5b505050506040513d601f19601f8201168201806040525081019061252b9190615061565b6102ca42610e10615a09565b506000808052600b602052600080516020615d6c833981519152546040516370a0823160e01b81523060048201526001600160a01b03909116906370a082319060240160206040518083038186803b15801561259257600080fd5b505afa1580156125a6573d6000803e3d6000fd5b505050506040513d601f19601f820116820180604052508101906125ca9190615061565b6003546000808052600b602052600080516020615d6c83398151915254604051632266eabb60e21b81526001600160a01b0391821660048201523060248201526044810183905260648101859052939450909291169063899baaec90608401604080518083038186803b15801561264057600080fd5b505afa158015612654573d6000803e3d6000fd5b505050506040513d601f19601f820116820180604052508101906126789190615573565b50905080612687575050919050565b6000808052600b6020527fdf7de25b7f1fd6d0b5205f0e18f1f35bd7b8d84cce336588d184533ce43a6f7754620f4240906126cb906001600160801b031684615b20565b6126d59190615a47565b905060006126e38284615bb6565b6000808052600b602052600080516020615d6c833981519152549192506127159183906001600160a01b03168861418e565b60008052600b602052600080516020615d6c833981519152549095506001600160a01b031663a9059cbb6127516000546001600160a01b031690565b6040516001600160e01b031960e084901b1681526001600160a01b03909116600482015260248101859052604401602060405180830381600087803b15801561279957600080fd5b505af11580156127ad573d6000803e3d6000fd5b505050506040513d601f19601f820116820180604052508101906127d19190614fa0565b5060008052600b602052600080516020615d6c833981519152546040517fed4b43d1c43fa6de2432cc50d2bbc8db51d9ce0d2095d0a5cfac618764e9fe589161282991849186916001600160a01b03909116906158ff565b60405180910390a160015b600d5460ff1663ffffffff82161015612b715763ffffffff81166000908152600b6020526040908190205490516370a0823160e01b81523060048201526001600160a01b03909116906370a082319060240160206040518083038186803b15801561289e57600080fd5b505afa1580156128b2573d6000803e3d6000fd5b505050506040513d601f19601f820116820180604052508101906128d69190615061565b94508415612b5f5763ffffffff81166000908152600b60205260409020600101546001600160801b031615612a985763ffffffff81166000908152600b6020526040902060010154620f424090612936906001600160801b031687615b20565b6129409190615a47565b925061294c8386615bb6565b63ffffffff82166000908152600b602052604090205490925061297c90829084906001600160a01b03168961418e565b63ffffffff82166000908152600b60205260409020549096506001600160a01b031663a9059cbb6129b56000546001600160a01b031690565b6040516001600160e01b031960e084901b1681526001600160a01b03909116600482015260248101869052604401602060405180830381600087803b1580156129fd57600080fd5b505af1158015612a11573d6000803e3d6000fd5b505050506040513d601f19601f82011682018060405250810190612a359190614fa0565b5063ffffffff81166000908152600b6020526040908190205490517fed4b43d1c43fa6de2432cc50d2bbc8db51d9ce0d2095d0a5cfac618764e9fe5891612a8b91859187916001600160a01b03909116906158ff565b60405180910390a1612b5f565b63ffffffff81166000908152600b6020526040902060020154600654612abe9042615bb6565b612ac89190615b20565b915084821015612b5f5763ffffffff81166000908152600b6020526040902054612aff90829084906001600160a01b03168961418e565b63ffffffff82166000908152600b60205260408082205490519298507fed4b43d1c43fa6de2432cc50d2bbc8db51d9ce0d2095d0a5cfac618764e9fe5892612b5692869290916001600160a01b03909116906158ff565b60405180910390a15b80612b6981615c25565b915050612834565b5050505050919050565b600554612b90906001600160a01b0316611438565b60005b600d5460ff1663ffffffff82161015611a3c5763ffffffff81166000908152600b6020526040902054612bce906001600160a01b0316611438565b80612bd881615c25565b915050612b93565b6000546001600160a01b03163314612c0a5760405162461bcd60e51b81526004016112c2906158ca565b600f546001600160a01b031615612c595760405162461bcd60e51b8152602060048201526013602482015272105b1c9958591e481a5b9a5d1a585b1a5e9959606a1b60448201526064016112c2565b6010819055600f80546001600160a01b0319166001600160a01b0385811691821783556040805160608101825286815260006020808301828152838501838152968352600a9091529290208151815591516001830155925160029091015591549091612cc59116611438565b601254600f54612ce4916001600160a01b039182169116600019614387565b60125460055460408051631dce337960e31b81529051612d7f936001600160a01b03908116936000199391169163ee719bc891600480820192602092909190829003018186803b158015612d3757600080fd5b505afa158015612d4b573d6000803e3d6000fd5b505050506040513d601f19601f82011682018060405250810190612d6f9190614e5b565b6001600160a01b03169190614387565b612de8730769fd68dfb93167989c6f7254cd0d766fb2841f600019601160009054906101000a90046001600160a01b03166001600160a01b031663ee719bc86040518163ffffffff1660e01b815260040160206040518083038186803b158015612d3757600080fd5b60115460408051631dce337960e31b81529051612e34926001600160a01b03169160001991839163ee719bc8916004808301926020929190829003018186803b158015612d3757600080fd5b612e9c73dab943c03f9e84795dc7bf51ddc71daf0033382b60001973dab943c03f9e84795dc7bf51ddc71daf0033382b6001600160a01b031663ee719bc86040518163ffffffff1660e01b815260040160206040518083038186803b158015612d3757600080fd5b612f04733ad736904e9e65189c3000c7dd2c8ac8bb7cd4e3600019733ad736904e9e65189c3000c7dd2c8ac8bb7cd4e36001600160a01b031663ee719bc86040518163ffffffff1660e01b815260040160206040518083038186803b158015612d3757600080fd5b50505050565b60105460405163d1abb90760e01b81528291730769fd68dfb93167989c6f7254cd0d766fb2841f9163d1abb90791612f499160009030906004016158ff565b600060405180830381600087803b158015612f6357600080fd5b505af1925050508015612f74575060015b61304f57612f80615cab565b806308c379a014156130435750612f95615cc3565b80612fa05750613045565b60408051808201909152601c81527f426f72696e6745524332303a205472616e73666572206661696c6564000000006020918201528151908201207f1a3f0851ddc9e157ae96e52ed9dfd71a8cb4b1cf2a73b26b9f3f9e0aa9469d271461303d5760405162461bcd60e51b815260206004820152601160248201527010b137b934b733a2a921991822b93937b960791b60448201526064016112c2565b50919050565b505b3d6000803e3d6000fd5b60015b60028163ffffffff161161303d5763ffffffff81166000908152600b60209081526040808320548151631dce337960e31b815291516001600160a01b039091169263ee719bc89260048082019391829003018186803b1580156130b457600080fd5b505afa1580156130c8573d6000803e3d6000fd5b505050506040513d601f19601f820116820180604052508101906130ec9190614e5b565b6040516370a0823160e01b81523060048201526001600160a01b0391909116906370a082319060240160206040518083038186803b15801561312d57600080fd5b505afa158015613141573d6000803e3d6000fd5b505050506040513d601f19601f820116820180604052508101906131659190615061565b63ffffffff83166000908152600b602052604081206001015491925090620f42409061319a906001600160801b031684615b20565b6131a49190615a47565b90506131b08183615bb6565b915081156133bf5763ffffffff83166000908152600b60205260409020546001600160a01b0316733ad736904e9e65189c3000c7dd2c8ac8bb7cd4e3141561334c5763ffffffff83166000908152600b6020908152604091829020548251631dce337960e31b815292516001600160a01b039091169263ee719bc8926004808301939192829003018186803b15801561324857600080fd5b505afa15801561325c573d6000803e3d6000fd5b505050506040513d601f19601f820116820180604052508101906132809190614e5b565b6001600160a01b0316632e1a7d4d836040518263ffffffff1660e01b81526004016132ad91815260200190565b600060405180830381600087803b1580156132c757600080fd5b505af11580156132db573d6000803e3d6000fd5b50505050733ad736904e9e65189c3000c7dd2c8ac8bb7cd4e36001600160a01b031663cf81464b836040518263ffffffff1660e01b81526004016000604051808303818588803b15801561332e57600080fd5b505af1158015613342573d6000803e3d6000fd5b50505050506133bf565b63ffffffff83166000908152600b6020526040908190205490516345977d0360e01b8152600481018490526001600160a01b03909116906345977d0390602401600060405180830381600087803b1580156133a657600080fd5b505af11580156133ba573d6000803e3d6000fd5b505050505b505080806133cc90615c25565b915050613052565b6000546001600160a01b031633146133fe5760405162461bcd60e51b81526004016112c2906158ca565b806134395760405162461bcd60e51b815260206004820152600b60248201526a085d985b1a5914995c525960aa1b60448201526064016112c2565b6001600160a01b0384166000908152600a6020526040902054156134895760405162461bcd60e51b815260206004820152600760248201526621756e6971756560c81b60448201526064016112c2565b604080516060810182526001600160a01b038681168083526001600160801b038781166020808601918252858701898152600d805460ff9081166000908152600b85528a81208a5181546001600160a01b0319169a1699909917895594516001890180546001600160801b031916919097161790955590516002909601959095558454938252600c905294909420805491851663ffffffff1990921691909117905554909161353991168661446a565b600d805460ff1690600061354c83615c49565b825460ff9182166101009390930a92830291909202199091161790555060408051606081018252838152600060208083018281528385018381526001600160a01b038b168452600a9092529390912082518155925160018401555160029092019190915561224886611438565b60606135f16040518060400160405280601581526020017418599d195c9059dc99595b595b9d10dc99585d1959605a1b8152506139a7565b6135f96139ea565b6136038a8a613a2c565b6005546001600160a01b038b81169116141580613626575061362489613b05565b155b1561366a5782828080601f0160208091040260200160405190810160405280939291908181526020018383808284376000920191909152509293506116b692505050565b82828080601f0160208091040260200160405190810160405280939291908181526020018383808284376000920191909152509293506136ad9250613c4e915050565b156136be576136bb81612445565b90505b6000806136cc89898e613ba0565b50915091506136db8383614501565b604080516080810182526001600160a01b03808516825260006020830152600b84900b92820192909252908d1660608201526137178482613da8565b9d9c50505050505050505050505050565b6000546001600160a01b031633146137525760405162461bcd60e51b81526004016112c2906158ca565b63ffffffff919091166000908152600b6020526040902060010180546001600160801b0319166001600160801b03909216919091179055565b6000546001600160a01b031633146137b55760405162461bcd60e51b81526004016112c2906158ca565b6001600160a01b03811661381a5760405162461bcd60e51b815260206004820152602660248201527f4f776e61626c653a206e6577206f776e657220697320746865207a65726f206160448201526564647265737360d01b60648201526084016112c2565b611a3c81614022565b6001600160a01b03831661383657600080fd5b6040805160028082526060808301845292602083019080368337019050509050848160008151811061387857634e487b7160e01b600052603260045260246000fd5b60200260200101906001600160a01b031690816001600160a01b03168152505083816001815181106138ba57634e487b7160e01b600052603260045260246000fd5b6001600160a01b039283166020918202929092010152601254166338ed1739848484306138e842603c615a09565b6040518663ffffffff1660e01b815260040161390895949392919061591e565b600060405180830381600087803b15801561392257600080fd5b505af1158015613936573d6000803e3d6000fd5b505050506040513d6000823e601f3d908101601f191682016040526122489190810190614ef5565b6139a38282604051602401613974929190615859565b60408051601f198184030181529190526020810180516001600160e01b031663319af33360e01b179052614660565b5050565b611a3c816040516024016139bb91906156c0565b60408051601f198184030181529190526020810180516001600160e01b031663104c13eb60e21b179052614660565b6001546001600160a01b031633146121a85760405162461bcd60e51b8152602060048201526005602482015264085a1bdcdd60da1b60448201526064016112c2565b613a3581613b05565b15613a88576005546001600160a01b038381169116146139a35760405162461bcd60e51b815260206004820152600e60248201526d085a5b9c1d5d1058d8d95c1d195960921b60448201526064016112c2565b613a9181614681565b156139a3576001600160a01b038083166000818152600c602090815260408083205463ffffffff168352600b909152902054909116146139a35760405162461bcd60e51b815260206004820152600f60248201526e085bdd5d1c1d5d1058d8d95c1d1959608a1b60448201526064016112c2565b60007fa9214cc96615e0085d3bb077758db69497dc2dce3b2b1e97bc93c3d18d83efd3826001600160a01b0316637730599e6040518163ffffffff1660e01b815260040160206040518083038186803b158015613b6157600080fd5b505afa158015613b75573d6000803e3d6000fd5b505050506040513d601f19601f82011682018060405250810190613b999190615061565b1492915050565b60008080613bb085870187614e77565b50600254604051631cd43d1160e31b81526001600160a01b038781166004830152808416602483015230604483015292955091169063e6a1e8889060640160806040518083038186803b158015613c0657600080fd5b505afa158015613c1a573d6000803e3d6000fd5b505050506040513d601f19601f82011682018060405250810190613c3e9190615538565b5094989097509095509350505050565b6003546000808052600b602052600080516020615d6c833981519152546040516323fc23f360e01b81526001600160a01b03918216600482015230602482015260448101839052919283928392909116906323fc23f39060640160806040518083038186803b158015613cc057600080fd5b505afa158015613cd4573d6000803e3d6000fd5b505050506040513d601f19601f82011682018060405250810190613cf89190615006565b6005546040516370a0823160e01b8152306004820152929650909450600093506001600160a01b031691506370a082319060240160206040518083038186803b158015613d4457600080fd5b505afa158015613d58573d6000803e3d6000fd5b505050506040513d601f19601f82011682018060405250810190613d7c9190615061565b90506000613d8a83856159de565b6001600160801b0316118015613da05750600081115b935050505090565b8160008080613db6856146dd565b92509250925060005b600d5460ff1663ffffffff82161015613f6657613dff60405180604001604052806005815260200164092dcc8caf60db1b8152508263ffffffff16613f70565b613e2a604051806040016040528060058152602001643a37b5b2b760d91b815250876060015161395e565b855163ffffffff82166000818152600b6020526040902054613e599288929188906001600160a01b0316614a0b565b9450613e9e858263ffffffff16613e786000546001600160a01b031690565b63ffffffff85166000908152600b602052604090205487906001600160a01b0316614a0b565b600e548751604051630e9ebfbf60e01b81526001600160a01b039182166004820152929750613f5292889263ffffffff8616921690630e9ebfbf9060240160206040518083038186803b158015613ef457600080fd5b505afa158015613f08573d6000803e3d6000fd5b505050506040513d601f19601f82011682018060405250810190613f2c9190614e5b565b63ffffffff85166000908152600b602052604090205486906001600160a01b0316614a0b565b945080613f5e81615c25565b915050613dbf565b5050505092915050565b6139a38282604051602401613f869291906158a8565b60408051601f198184030181529190526020810180516001600160e01b03166309710a9d60e41b179052614660565b6000818411613fc45781613fc6565b835b613fd09042615bb6565b613fda9084615b20565b905061401b6040518060400160405280601881526020017f556e696e76657374656420616d6f756e742069733a202573000000000000000081525082613f70565b9392505050565b600080546001600160a01b038381166001600160a01b0319831681178455604051919092169283917f8be0079c531659141344cd1fd0a4f28419497f9722a3daafe3b4186f6b6457e09190a35050565b6000546001600160a01b0316331461409c5760405162461bcd60e51b81526004016112c2906158ca565b6005546001600160a01b0316156140eb5760405162461bcd60e51b8152602060048201526013602482015272105b1c9958591e481a5b9a5d1a585b1a5e9959606a1b60448201526064016112c2565b600580546001600160a01b038089166001600160a01b0319928316811790935560078890556001600160801b03848116908616600160801b026001600160801b0319161760085560048054918816919092161790556040805160608101825285815260006020808301828152838501838152958352600a909152929020815181559151600183015591516002919091015561418587611438565b50505050505050565b8051819061428b576001546003546040805160008152602081019091526001600160a01b03928316926339255d5b921690635cb398e160e11b906141db9088908b908b906044810161581a565b60408051601f19818403018152918152602080830180516001600160e01b03166001600160e01b03199586161790528151600081529081019182905260e086901b909316905261422f92916024810161571a565b600060405180830381600087803b15801561424957600080fd5b505af115801561425d573d6000803e3d6000fd5b505050506040513d6000823e601f3d908101601f1916820160405261428591908101906150f7565b5061437f565b6001546003546040805160008152602081019091526001600160a01b0392831692634329d293921690635cb398e160e11b906142d09088908b908b906044810161581a565b60408051601f19818403018152918152602080830180516001600160e01b03166001600160e01b03199586161790528151600081529081019182905260e086901b90931690526143259291866024820161575a565b600060405180830381600087803b15801561433f57600080fd5b505af1158015614353573d6000803e3d6000fd5b505050506040513d6000823e601f3d908101601f1916820160405261437b9190810190615129565b5090505b949350505050565b604051636eb1769f60e11b81523060048201526001600160a01b038381166024830152600091839186169063dd62ed3e9060440160206040518083038186803b1580156143d357600080fd5b505afa1580156143e7573d6000803e3d6000fd5b505050506040513d601f19601f8201168201806040525081019061440b9190615061565b6144159190615a09565b604080516001600160a01b038616602482015260448082018490528251808303909101815260649091019091526020810180516001600160e01b031663095ea7b360e01b179052909150612f04908590614b15565b6001546003546040805160008152602081019091526001600160a01b03928316926339255d5b921690636bc3c20560e11b906144ad908690889060448101615690565b60408051601f19818403018152918152602080830180516001600160e01b03166001600160e01b03199586161790528151600081529081019182905260e086901b909316905261135c92916024810161571a565b600154604051631fb6491d60e11b81526000916001600160a01b031690633f6c923a906145329086906004016156c0565b60006040518083038186803b15801561454a57600080fd5b505afa15801561455e573d6000803e3d6000fd5b505050506040513d6000823e601f3d908101601f191682016040526145869190810190615415565b9050606060008260a001515111156145b7578160a001518060200190518101906145b091906153d0565b90506145c8565b506040805160208101909152600081525b6145f66040518060400160405280600c81526020016b1059999a5b1a585d1948125160a21b81525082614be7565b600e54604051634a2f43a560e01b81526001600160a01b0390911690634a2f43a590614628908690859060040161566c565b600060405180830381600087803b15801561464257600080fd5b505af1158015614656573d6000803e3d6000fd5b5050505050505050565b80516a636f6e736f6c652e6c6f67602083016000808483855afa5050505050565b60007f8aedc3b5d4bf031e11a7e2940f7251c005698405d58e02e1c247fed3b1b3a674826001600160a01b0316637730599e6040518163ffffffff1660e01b815260040160206040518083038186803b158015613b6157600080fd5b60608101516001600160a01b03166000908152600c60205260408120548190819061471a9063ffffffff166102f86000546001600160a01b031690565b50935061472f9150633b9aca00905083615af1565b600e548551604051630e9ebfbf60e01b81526001600160a01b039182166004820152929450600092911690630e9ebfbf9060240160206040518083038186803b15801561477b57600080fd5b505afa15801561478f573d6000803e3d6000fd5b505050506040513d601f19601f820116820180604052508101906147b39190614e5b565b90506001600160a01b038116156148095760608501516001600160a01b03166000908152600c60205260409020546147f19063ffffffff1682611152565b5093506148069150633b9aca00905083615af1565b91505b60008560200151866040015161481f9190615b3f565b905060008082600b0b13156148f957600854620f42409061484d906001600160801b0316600b85900b615b20565b6148579190615a47565b90506001600160a01b038316156148e857600854620f42409061488a90600160801b90046001600160801b031682615b8e565b6148949083615af1565b61489e9190615a21565b6148a890866159de565b600854909550620f4240906148cd90600160801b90046001600160801b031683615af1565b6148d79190615a21565b6148e190856159de565b93506149c8565b6148f281866159de565b94506149c8565b61490582600019615a5b565b600854909250620f424090614927906001600160801b0316600b85900b615b20565b6149319190615a47565b90506001600160a01b038316156149bb57600854620f42409061496490600160801b90046001600160801b031682615b8e565b61496e9083615af1565b6149789190615a21565b6149829086615b8e565b600854909550620f4240906149a790600160801b90046001600160801b031683615af1565b6149b19190615a21565b6148e19085615b8e565b6149c58186615b8e565b94505b600854620f4240906149e3906001600160801b031682615b8e565b8860400151600b0b6149f59190615af1565b6149ff9190615a21565b95505050509193909250565b60015460035486916001600160a01b0390811691634329d2939116630465a56b60e31b858989614a3f633b9aca008b615a21565b604080516000815260208101909152614a5f9493929190604481016157d8565b60408051601f19818403018152918152602080830180516001600160e01b03166001600160e01b03199586161790528151600081529081019182905260e086901b9093169052614ab49291866024820161575a565b600060405180830381600087803b158015614ace57600080fd5b505af1158015614ae2573d6000803e3d6000fd5b505050506040513d6000823e601f3d908101601f19168201604052614b0a9190810190615129565b509695505050505050565b6000614b6a826040518060400160405280602081526020017f5361666545524332303a206c6f772d6c6576656c2063616c6c206661696c6564815250856001600160a01b0316614c2c9092919063ffffffff16565b8051909150156113b25780806020019051810190614b889190614fa0565b6113b25760405162461bcd60e51b815260206004820152602a60248201527f5361666545524332303a204552433230206f7065726174696f6e20646964206e6044820152691bdd081cdd58d8d9595960b21b60648201526084016112c2565b6139a38282604051602401614bfd929190615883565b60408051601f198184030181529190526020810180516001600160e01b0316634b5c427760e01b179052614660565b606061437f848460008585843b614c855760405162461bcd60e51b815260206004820152601d60248201527f416464726573733a2063616c6c20746f206e6f6e2d636f6e747261637400000060448201526064016112c2565b600080866001600160a01b03168587604051614ca19190615650565b60006040518083038185875af1925050503d8060008114614cde576040519150601f19603f3d011682016040523d82523d6000602084013e614ce3565b606091505b5091509150611a7882828660608315614cfd57508161401b565b825115614d0d5782518084602001fd5b8160405162461bcd60e51b81526004016112c291906156c0565b6000614d32836159b7565b604051614d3f8282615bf9565b809250848152858585011115614d5457600080fd5b614d62856020830186615bcd565b50509392505050565b8051614d7681615d41565b919050565b80518015158114614d7657600080fd5b80516001600160e01b031981168114614d7657600080fd5b60008083601f840112614db4578182fd5b5081356001600160401b03811115614dca578182fd5b602083019150836020828501011115614de257600080fd5b9250929050565b600082601f830112614df9578081fd5b61401b83835160208501614d27565b8051600b81900b8114614d7657600080fd5b803563ffffffff81168114614d7657600080fd5b805160ff81168114614d7657600080fd5b600060208284031215614e50578081fd5b813561401b81615d41565b600060208284031215614e6c578081fd5b815161401b81615d41565b60008060408385031215614e89578081fd5b8235614e9481615d41565b91506020830135614ea481615d41565b809150509250929050565b60008060408385031215614e89578182fd5b600080600060608486031215614ed5578081fd5b8335614ee081615d41565b95602085013595506040909401359392505050565b60006020808385031215614f07578182fd5b82516001600160401b0380821115614f1d578384fd5b818501915085601f830112614f30578384fd5b815181811115614f4257614f42615c95565b8060051b9150604051614f5785840182615bf9565b81815284810184860184860187018a1015614f70578788fd5b8795505b83861015614f92578051825260019590950194908601908601614f74565b509098975050505050505050565b600060208284031215614fb1578081fd5b61401b82614d7b565b60008060008060808587031215614fcf578182fd5b614fd885614d7b565b9350614fe660208601614d7b565b92506040850151614ff681615d56565b6060959095015193969295505050565b6000806000806080858703121561501b578182fd5b61502485614d7b565b9350602085015161503481615d56565b604086015190935061504581615d56565b606086015190925061505681615d56565b939692955090935050565b600060208284031215615072578081fd5b5051919050565b60006020828403121561508a578081fd5b81356001600160401b0381111561509f578182fd5b8201601f810184136150af578182fd5b80356150ba816159b7565b6040516150c78282615bf9565b8281528660208486010111156150db578485fd5b8260208501602083013791820160200193909352949350505050565b600060208284031215615108578081fd5b81516001600160401b0381111561511d578182fd5b61437f84828501614de9565b6000806040838503121561513b578182fd5b82516001600160401b0380821115615151578384fd5b61515d86838701614de9565b93506020850151915080821115615172578283fd5b5061517f85828601614de9565b9150509250929050565b600080600080600080600060a0888a0312156151a3578485fd5b87356151ae81615d41565b965060208801356151be81615d41565b95506040880135945060608801356001600160401b03808211156151e0578485fd5b6151ec8b838c01614da3565b909650945060808a0135915080821115615204578384fd5b506152118a828b01614da3565b989b979a50959850939692959293505050565b600080600080600080600080600060c08a8c031215615241578283fd5b893561524c81615d41565b985060208a013561525c81615d41565b975060408a0135965060608a01356001600160401b038082111561527e578485fd5b61528a8d838e01614da3565b909850965060808c01359150808211156152a2578485fd5b6152ae8d838e01614da3565b909650945060a08c01359150808211156152c6578384fd5b506152d38c828d01614da3565b915080935050809150509295985092959850929598565b600080600080608085870312156152ff578182fd5b843561530a81615d41565b9350602085013561531a81615d56565b93969395505050506040820135916060013590565b60008060008060008060c08789031215615347578384fd5b863561535281615d41565b955060208701359450604087013561536981615d41565b935060608701359250608087013561538081615d56565b915060a087013561539081615d56565b809150509295509295509295565b6000602082840312156153af578081fd5b5035919050565b6000602082840312156153c7578081fd5b61401b82614e08565b6000602082840312156153e1578081fd5b81516001600160401b038111156153f6578182fd5b8201601f81018413615406578182fd5b61437f84825160208401614d27565b600060208284031215615426578081fd5b81516001600160401b038082111561543c578283fd5b908301906101608286031215615450578283fd5b61545861598e565b61546183614e2e565b815261546f60208401614e2e565b60208201526040830151604082015261548a60608401614d6b565b606082015261549b60808401614d8b565b608082015260a0830151828111156154b1578485fd5b6154bd87828601614de9565b60a08301525060c083015160c082015260e083015160e08201526101009150818301518282015261012091506154f4828401614d6b565b828201526101409150615508828401614d6b565b91810191909152949350505050565b60008060408385031215615529578182fd5b50508035926020909101359150565b6000806000806080858703121561554d578182fd5b8451935061555d60208601614e08565b6040860151606090960151949790965092505050565b60008060408385031215615585578182fd5b825191506020830151614ea481615d56565b6000806000606084860312156155ab578081fd5b8351925060208401519150604084015190509250925092565b6000602082840312156155d5578081fd5b61401b82614e1a565b600080604083850312156155f0578182fd5b614e9483614e1a565b6000806040838503121561560b578182fd5b61561483614e1a565b91506020830135614ea481615d56565b6000815180845261563c816020860160208601615bcd565b601f01601f19169290920160200192915050565b60008251615662818460208701615bcd565b9190910192915050565b6001600160a01b038316815260406020820181905260009061437f90830184615624565b60018060a01b03841681528260208201526060604082015260006156b76060830184615624565b95945050505050565b60208152600061401b6020830184615624565b6001600160a01b03831681526060602082018190526000906156f790830184615624565b8281036040938401526002815261060f60f31b6020820152919091019392505050565b6001600160a01b038416815260606020820181905260009061573e90830185615624565b82810360408401526157508185615624565b9695505050505050565b6001600160a01b038516815260806020820181905260009061577e90830186615624565b82810360408401526157908186615624565b90508281036060840152611a788185615624565b6001600160a01b03858116825284811660208301528316604082015260806060820181905260009061575090830184615624565b6001600160a01b03868116825260208201869052841660408201526001600160801b038316606082015260a060808201819052600090611a7890830184615624565b6001600160a01b038516815263ffffffff841660208201526001600160801b038316604082015260806060820181905260009061575090830184615624565b60408152600061586c6040830185615624565b905060018060a01b03831660208301529392505050565b6040815260006158966040830185615624565b82810360208401526156b78185615624565b6040815260006158bb6040830185615624565b90508260208301529392505050565b6020808252818101527f4f776e61626c653a2063616c6c6572206973206e6f7420746865206f776e6572604082015260600190565b92835260208301919091526001600160a01b0316604082015260600190565b600060a082018783526020878185015260a0604085015281875180845260c0860191508289019350845b8181101561596d5784516001600160a01b031683529383019391830191600101615948565b50506001600160a01b03969096166060850152505050608001529392505050565b60405161016081016001600160401b03811182821017156159b1576159b1615c95565b60405290565b60006001600160401b038211156159d0576159d0615c95565b50601f01601f191660200190565b60006001600160801b03808316818516808303821115615a0057615a00615c69565b01949350505050565b60008219821115615a1c57615a1c615c69565b500190565b60006001600160801b0380841680615a3b57615a3b615c7f565b92169190910492915050565b600082615a5657615a56615c7f565b500490565b600081600b0b83600b0b60016001605f1b0383821384841383830485118282161615615a8957615a89615c69565b6b7fffffffffffffffffffffff1986851282811687830587121615615ab057615ab0615c69565b878712925085820587128484161615615acb57615acb615c69565b85850587128184161615615ae157615ae1615c69565b5050509290910295945050505050565b60006001600160801b0380831681851681830481118215151615615b1757615b17615c69565b02949350505050565b6000816000190483118215151615615b3a57615b3a615c69565b500290565b600081600b0b83600b0b8281128160016001605f1b031901831281151615615b6957615b69615c69565b8160016001605f1b03018313811615615b8457615b84615c69565b5090039392505050565b60006001600160801b0383811690831681811015615bae57615bae615c69565b039392505050565b600082821015615bc857615bc8615c69565b500390565b60005b83811015615be8578181015183820152602001615bd0565b83811115612f045750506000910152565b601f8201601f191681016001600160401b0381118282101715615c1e57615c1e615c95565b6040525050565b600063ffffffff80831681811415615c3f57615c3f615c69565b6001019392505050565b600060ff821660ff811415615c6057615c60615c69565b60010192915050565b634e487b7160e01b600052601160045260246000fd5b634e487b7160e01b600052601260045260246000fd5b634e487b7160e01b600052604160045260246000fd5b600060033d1115615cc057600481823e5160e01c5b90565b600060443d1015615cd15790565b6040516003193d81016004833e81513d6001600160401b038160248401118184111715615d0057505050505090565b8285019150815181811115615d185750505050505090565b843d8701016020828501011115615d325750505050505090565b6123d460208286010187615bf9565b6001600160a01b0381168114611a3c57600080fd5b6001600160801b0381168114611a3c57600080fdfedf7de25b7f1fd6d0b5205f0e18f1f35bd7b8d84cce336588d184533ce43a6f76a26469706673582212205b26cbedf45faf7b9798a9ce2935982ceb8941ea67a74c3259ea5750285f56a164736f6c6343000804003360a06040523480156200001157600080fd5b5060405162004d8238038062004d828339810160408190526200003491620000aa565b606081901b6001600160601b031916608052620000513362000058565b50620000da565b600e80546001600160a01b038381166001600160a01b0319831681179093556040519116919082907f8be0079c531659141344cd1fd0a4f28419497f9722a3daafe3b4186f6b6457e090600090a35050565b600060208284031215620000bc578081fd5b81516001600160a01b0381168114620000d3578182fd5b9392505050565b60805160601c614c436200013f6000396000818161046b01528181610dc501528181610e3801528181610fdc01528181611200015281816113780152818161153c015281816115de0152818161168401528181611d1e0152611da50152614c436000f3fe60806040526004361061033e5760003560e01c8063715018a6116101ae578063c68d4283116100eb578063dfdbb2021161008f578063f2fde38b1161006c578063f2fde38b14610a4f578063fad8b32a14610a6f578063fc673c4f14610a8f578063fe9d930314610aaf57005b8063dfdbb202146109d6578063eb3537cc146109f6578063ee719bc814610a3157005b8063d95b6371116100c8578063d95b637114610930578063d9d078d614610950578063d9ff4ad814610970578063dd62ed3e1461099057005b8063c68d4283146108d0578063ca789464146108f0578063cf97256d1461091057005b80639d87674111610152578063a457c2d71161012f578063a457c2d714610850578063a9059cbb14610870578063b84cdd4a14610890578063bb0d196e146108b057005b80639d876741146107f0578063a1b2bf8b14610810578063a3a7e7f31461083057005b80638ddd1c0f1161018b5780638ddd1c0f1461077b578063959b8c3f1461079b57806395d89b41146107bb5780639bd9bbc6146107d057005b8063715018a61461072857806379359f6f1461073d5780638da5cb5b1461075d57005b8063386fa2211161027c57806352d1902d1161022057806362aa5287116101fd57806362aa5287146106a857806362ad1b83146106c85780636c2d9f2f146106e857806370a082311461070857005b806352d1902d14610641578063556f0dc7146106745780635b9d09cc1461068857005b806345977d031161025957806345977d03146105bf57806346951954146105df5780634b61cc33146105ff57806350d75d251461062c57005b8063386fa2211461055f578063395093511461057f57806342fe09801461059f57005b806318160ddd116102e3578063245887fc116102c0578063245887fc146104c357806327048397146104e35780632ec8eec714610503578063313ce5671461054357005b806318160ddd1461043d57806320bc44251461045c57806323b872dd146104a357005b8063095ea7b31161031c578063095ea7b3146103ad57806311bcc81e146103dd57806312a6a3f8146103fd57806316d055d61461041d57005b806306e485381461034057806306fdde031461036b578063090c415e1461038d575b005b34801561034c57600080fd5b50610355610acf565b604051610362919061453b565b60405180910390f35b34801561037757600080fd5b50610380610ae0565b6040516103629190614602565b34801561039957600080fd5b5061033e6103a8366004614046565b610b72565b3480156103b957600080fd5b506103cd6103c836600461401b565b610c26565b6040519015158152602001610362565b3480156103e957600080fd5b5061033e6103f8366004614445565b610c3d565b34801561040957600080fd5b5061033e61041836600461435b565b610c9e565b34801561042957600080fd5b5061033e610438366004613e77565b610dc3565b34801561044957600080fd5b506003545b604051908152602001610362565b34801561046857600080fd5b507f00000000000000000000000000000000000000000000000000000000000000005b6040516001600160a01b039091168152602001610362565b3480156104af57600080fd5b506103cd6104be366004613ec7565b610e1e565b3480156104cf57600080fd5b5061033e6104de36600461401b565b610e36565b3480156104ef57600080fd5b5061033e6104fe3660046143a4565b610ead565b34801561050f57600080fd5b5061052361051e366004613e07565b610f8a565b604080519485526020850193909352918301526060820152608001610362565b34801561054f57600080fd5b5060405160128152602001610362565b34801561056b57600080fd5b5061035561057a366004613e07565b610fa8565b34801561058b57600080fd5b506103cd61059a36600461401b565b61105a565b3480156105ab57600080fd5b5061033e6105ba3660046143c5565b611095565b3480156105cb57600080fd5b5061033e6105da366004614445565b61119f565b3480156105eb57600080fd5b5061033e6105fa366004613e07565b6111f5565b34801561060b57600080fd5b5061061f61061a366004613fa2565b611284565b6040516103629190614588565b34801561063857600080fd5b5061048b6112c9565b34801561064d57600080fd5b507f6bfbb132610e56cb96575dba244667b9d6dbfeffe22b68a79fa16f2d18eb001961044e565b34801561068057600080fd5b50600161044e565b34801561069457600080fd5b5061033e6106a336600461409f565b6112f3565b3480156106b457600080fd5b5061033e6106c3366004613ec7565b611376565b3480156106d457600080fd5b5061033e6106e3366004613f07565b6113ce565b3480156106f457600080fd5b5061061f610703366004613fe7565b61147b565b34801561071457600080fd5b5061044e610723366004613e07565b6114bd565b34801561073457600080fd5b5061033e6114e5565b34801561074957600080fd5b506103cd610758366004613e07565b61151b565b34801561076957600080fd5b50600e546001600160a01b031661048b565b34801561078757600080fd5b5061033e61079636600461430a565b611527565b3480156107a757600080fd5b5061033e6107b6366004613e07565b611a11565b3480156107c757600080fd5b50610380611a62565b3480156107dc57600080fd5b5061033e6107eb36600461409f565b611a71565b3480156107fc57600080fd5b5061033e61080b366004614174565b611ac5565b34801561081c57600080fd5b5061033e61082b36600461435b565b611b34565b34801561083c57600080fd5b5061033e61084b366004613e07565b611bde565b34801561085c57600080fd5b506103cd61086b36600461401b565b611bf2565b34801561087c57600080fd5b506103cd61088b36600461401b565b611c41565b34801561089c57600080fd5b506103cd6108ab36600461401b565b611c4f565b3480156108bc57600080fd5b506103cd6108cb366004613e07565b611ca0565b3480156108dc57600080fd5b5061033e6108eb366004614174565b611cac565b3480156108fc57600080fd5b5061033e61090b36600461401b565b611d1c565b34801561091c57600080fd5b5061033e61092b36600461401b565b611d90565b34801561093c57600080fd5b506103cd61094b366004613e3f565b611e86565b34801561095c57600080fd5b506103cd61096b36600461401b565b611e94565b34801561097c57600080fd5b5061033e61098b366004614174565b611eae565b34801561099c57600080fd5b5061044e6109ab366004613e3f565b6001600160a01b03918216600090815260126020908152604080832093909416825291909152205490565b3480156109e257600080fd5b5061033e6109f1366004614174565b611ed8565b348015610a0257600080fd5b50610a16610a1136600461401b565b611f02565b60408051938452602084019290925290820152606001610362565b348015610a3d57600080fd5b50600f546001600160a01b031661048b565b348015610a5b57600080fd5b5061033e610a6a366004613e07565b612054565b348015610a7b57600080fd5b5061033e610a8a366004613e07565b6120ec565b348015610a9b57600080fd5b5061033e610aaa3660046140ec565b61213d565b348015610abb57600080fd5b5061033e610aca36600461445d565b6121dc565b6060610adb601361222c565b905090565b606060108054610aef90614b1f565b80601f0160208091040260200160405190810160405280929190818152602001828054610b1b90614b1f565b8015610b685780601f10610b3d57610100808354040283529160200191610b68565b820191906000526020600020905b815481529060010190602001808311610b4b57829003601f168201915b5050505050905090565b6000338585604051602001610b8993929190614740565b604051602081830303815290604052805190602001209050610bde8184848080602002602001604051908101604052809392919081815260200183836020028082843760009201919091525061229292505050565b6040518481526001600160a01b0386169033907f30f416fa68fca014a0f334464c64b000ba53e99b6d2afdea9d5ca756372d5985906020015b60405180910390a35050505050565b6000610c333384846122e1565b5060015b92915050565b600e546001600160a01b03163314610c705760405162461bcd60e51b8152600401610c6790614864565b60405180910390fd5b610c9b3333836040518060200160405280600081525060405180602001604052806000815250612408565b50565b6040513390600090610cb69083908790602001614615565b60408051601f1981840301815291905280516020909101209050610cda818461260d565b15610d3a5760405162461bcd60e51b815260206004820152602a60248201527f5375706572666c756964546f6b656e3a2061677265656d656e7420616c726561604482015269191e4818dc99585d195960b21b6064820152608401610c67565b610d778185858080602002602001604051908101604052809392919081815260200183836020028082843760009201919091525061229292505050565b816001600160a01b03167f770ea40a13a4644573ed785e5c7116890709947918747febc5add46feb531e2d868686604051610db4939291906145c0565b60405180910390a25050505050565b7f00000000000000000000000000000000000000000000000000000000000000006001600160a01b03163314610e0b5760405162461bcd60e51b8152600401610c67906146f5565b610e1784848484612649565b5050505050565b6000610e2c33858585612649565b90505b9392505050565b7f00000000000000000000000000000000000000000000000000000000000000006001600160a01b03163314610e7e5760405162461bcd60e51b8152600401610c67906146f5565b610ea93383836040518060200160405280600081525060405180602001604052806000815250612408565b5050565b6040513390600090610ec59083908690602001614615565b604051602081830303815290604052805190602001209050610ee7818461260d565b610f455760405162461bcd60e51b815260206004820152602960248201527f5375706572666c756964546f6b656e3a2061677265656d656e7420646f6573206044820152681b9bdd08195e1a5cdd60ba1b6064820152608401610c67565b610f4f81846127c1565b60405184815233907f71a63dc095de07aa5512ad57a7596a39516317e316981a1cd71000057be1537b9060200160405180910390a250505050565b6000808042610f998582611f02565b91979096509094509092509050565b6001600160a01b038181166000908152600160205260409081902054905163c56a069d60e01b8152901960048201526060917f0000000000000000000000000000000000000000000000000000000000000000169063c56a069d9060240160006040518083038186803b15801561101e57600080fd5b505afa158015611032573d6000803e3d6000fd5b505050506040513d6000823e601f3d908101601f19168201604052610c37919081019061421f565b3360008181526012602090815260408083206001600160a01b03871684529091528120549091610c3391859061109090866127e2565b6122e1565b600054610100900460ff166110b05760005460ff16156110b4565b303b155b6111175760405162461bcd60e51b815260206004820152602e60248201527f496e697469616c697a61626c653a20636f6e747261637420697320616c72656160448201526d191e481a5b9a5d1a585b1a5e995960921b6064820152608401610c67565b600054610100900460ff16158015611139576000805461ffff19166101011790555b600f805460ff8816600160a01b026001600160a81b03199091166001600160a01b038a161717905561116d60108686613cef565b5061117a60118484613cef565b50611184306127ee565b8015611196576000805461ff00191690555b50505050505050565b600e546001600160a01b031633146111c95760405162461bcd60e51b8152600401610c6790614864565b610c9b33333384604051806020016040528060008152506040518060200160405280600081525061291c565b336001600160a01b037f0000000000000000000000000000000000000000000000000000000000000000161461127b5760405162461bcd60e51b815260206004820152602560248201527f5375706572546f6b656e3a206f6e6c7920686f73742063616e2075706461746560448201526420636f646560d81b6064820152608401610c67565b610c9b81612b3d565b6060600085858560405160200161129d93929190614740565b6040516020818303038152906040528051906020012090506112bf8184612d35565b9695505050505050565b6000610adb7f360894a13ba1a3210667c828492db98dca3e2076cc3735a920a3ca505d382bbc5490565b600e546001600160a01b0316331461131d5760405162461bcd60e51b8152600401610c6790614864565b611370333386866040518060200160405280600081525087878080601f01602080910402602001604051908101604052809392919081815260200183838082843760009201919091525061291c92505050565b50505050565b7f00000000000000000000000000000000000000000000000000000000000000006001600160a01b031633146113be5760405162461bcd60e51b8152600401610c67906146f5565b6113c98383836122e1565b505050565b336113db6013828a612de0565b6113f75760405162461bcd60e51b8152600401610c67906147d0565b6114718189898989898080601f01602080910402602001604051908101604052809392919081815260200183838082843760009201919091525050604080516020601f8d018190048102820181019092528b815292508b91508a908190840183828082843760009201919091525060019250612e89915050565b5050505050505050565b606060008484604051602001611492929190614615565b6040516020818303038152906040528051906020012090506114b48184612d35565b95945050505050565b6000806114ca8342611f02565b50509050600081126114dc5780610e2f565b60009392505050565b600e546001600160a01b0316331461150f5760405162461bcd60e51b8152600401610c6790614864565b6115196000612f00565b565b6000610c378242611e94565b604051632329212160e21b81523360048201527f00000000000000000000000000000000000000000000000000000000000000006001600160a01b031690638ca484849060240160206040518083038186803b15801561158657600080fd5b505afa15801561159a573d6000803e3d6000fd5b505050506040513d601f19601f820116820180604052508101906115be91906142d2565b6115da5760405162461bcd60e51b8152600401610c6790614789565b60007f00000000000000000000000000000000000000000000000000000000000000006001600160a01b031663289b3c0d6040518163ffffffff1660e01b815260040160206040518083038186803b15801561163557600080fd5b505afa158015611649573d6000803e3d6000fd5b505050506040513d601f19601f8201168201806040525081019061166d9190613e23565b604051638369a0f160e01b81526001600160a01b037f0000000000000000000000000000000000000000000000000000000000000000811660048301523060248301527f9f60ae461adf056670e03ae602566409933242392cb06744f5747c9f38b05d096044830152919250600091831690638369a0f19060640160206040518083038186803b15801561170057600080fd5b505afa158015611714573d6000803e3d6000fd5b505050506040513d601f19601f820116820180604052508101906117389190613e23565b90506001600160a01b03811661174b5750845b600061175685612f52565b90508361186e576001600160a01b0382166000908152600260205260409020546117809082612fc0565b6001600160a01b0380841660009081526002602052604080822093909355908816815220546117af9082612fcc565b6001600160a01b038781166000818152600260209081526040918290209490945580518c815293840189905291851692909133917f8505c3d8f1f184f032cf0bc4cd80ee61c8b9d94f8907c3281bf0101a2610fe80910160405180910390a4604080516001600160a01b038981168252602082018b9052918101879052600060608201528184169188169033907f5f22b60e58b1d6de858bc27c48d5a4653e052da99e083c1d88bb8c58e1abc8ef9060800160405180910390a4611471565b600061187985612f52565b6001600160a01b03891660009081526002602052604090205490915061189f9083612fc0565b6001600160a01b03808a1660009081526002602052604080822093909355908516815220546118da9082906118d49085612fcc565b90612fcc565b6001600160a01b0380851660009081526002602052604080822093909355908916815220546119099082612fc0565b6001600160a01b038881166000818152600260209081526040918290209490945580518d81529384018a9052918b1692909133917f8505c3d8f1f184f032cf0bc4cd80ee61c8b9d94f8907c3281bf0101a2610fe80910160405180910390a4826001600160a01b03167fd6c9a04afc81e8c614310bbee6c9e84f5abe15b82038bf8347014ce0852e6ffd866040516119a391815260200190565b60405180910390a2604080516001600160a01b038a81168252602082018c9052918101889052606081018790528185169189169033907f5f22b60e58b1d6de858bc27c48d5a4653e052da99e083c1d88bb8c58e1abc8ef9060800160405180910390a4505050505050505050565b33611a1e60138284612fd8565b806001600160a01b0316826001600160a01b03167ff4caeb2d6ca8932a215a353d0703c326ec2d81fc68170f320eb2ab49e9df61f960405160405180910390a35050565b606060118054610aef90614b1f565b6113703333868686868080601f01602080910402602001604051908101604052809392919081815260200183838082843760009201829052506040805160208101909152908152925060019150612e899050565b333014611b145760405162461bcd60e51b815260206004820152601d60248201527f5375706572546f6b656e3a206f6e6c792073656c6620616c6c6f7765640000006044820152606401610c67565b6040805160008152602081019091526113c99033908590859085906130dd565b6040513390600090611b4c9083908790602001614615565b604051602081830303815290604052805190602001209050611ba18185858080602002602001604051908101604052809392919081815260200183836020028082843760009201919091525061229292505050565b336001600160a01b03167f0c4c547b3a4fcaa5be8353b3111472b124155bccc86de811d4a481c9e6e9faca868686604051610db4939291906145c0565b610ea9333383611bed336114bd565b612649565b6000610c333384611090856040518060600160405280602a8152602001614bb7602a91393360009081526012602090815260408083206001600160a01b038d16845290915290205491906131e4565b6000610e2f33338585612649565b600080600080611c5f8686611f02565b9250925092506000611c91828411611c78576000611c8a565b611c8a611c858486614ab9565b612f52565b8590612fc0565b60001315979650505050505050565b6000610c378242611c4f565b333014611cfb5760405162461bcd60e51b815260206004820152601d60248201527f5375706572546f6b656e3a206f6e6c792073656c6620616c6c6f7765640000006044820152606401610c67565b604080516000808252602082019092526113c9913391869186918690613210565b7f00000000000000000000000000000000000000000000000000000000000000006001600160a01b03163314611d645760405162461bcd60e51b8152600401610c67906146f5565b610ea933838484604051806020016040528060008152506040518060200160405280600081525061291c565b604051632329212160e21b81523360048201527f00000000000000000000000000000000000000000000000000000000000000006001600160a01b031690638ca484849060240160206040518083038186803b158015611def57600080fd5b505afa158015611e03573d6000803e3d6000fd5b505050506040513d601f19601f82011682018060405250810190611e2791906142d2565b611e435760405162461bcd60e51b8152600401610c6790614789565b6001600160a01b038216600090815260026020526040902054611e669082612fc0565b6001600160a01b0390921660009081526002602052604090209190915550565b6000610e2f60138484612de0565b600080611ea18484611f02565b5050600013949350505050565b600e546001600160a01b03163314611b145760405162461bcd60e51b8152600401610c6790614864565b600e546001600160a01b03163314611cfb5760405162461bcd60e51b8152600401610c6790614864565b6001600160a01b038216600090815260026020526040812054908080611f2786610fa8565b905060005b815181101561204b576000806000848481518110611f5a57634e487b7160e01b600052603260045260246000fd5b60209081029190910101516040516326cb922f60e21b81523060048201526001600160a01b038c81166024830152604482018c905290911690639b2e48bc9060640160606040518083038186803b158015611fb457600080fd5b505afa158015611fc8573d6000803e3d6000fd5b505050506040513d601f19601f82011682018060405250810190611fec9190614418565b91945092509050611ffd87836127e2565b965061200986826127e2565b955061203381831161201c576000612029565b612029611c858385614ab9565b6118d48a86612fc0565b9750505050808061204390614b5a565b915050611f2c565b50509250925092565b600e546001600160a01b0316331461207e5760405162461bcd60e51b8152600401610c6790614864565b6001600160a01b0381166120e35760405162461bcd60e51b815260206004820152602660248201527f4f776e61626c653a206e6577206f776e657220697320746865207a65726f206160448201526564647265737360d01b6064820152608401610c67565b610c9b81612f00565b336120f960138284613319565b806001600160a01b0316826001600160a01b03167f50546e66e5f44d728365dc3908c63bc5cfeeab470722c1677e3073a6ac294aa160405160405180910390a35050565b3361214a60138289612de0565b6121665760405162461bcd60e51b8152600401610c67906147d0565b61119681888888888080601f01602080910402602001604051908101604052809392919081815260200183838082843760009201919091525050604080516020601f8c018190048102820181019092528a815292508a915089908190840183828082843760009201919091525061240892505050565b6113c933338585858080601f016020809104026020016040519081016040528093929190818152602001838380828437600092018290525060408051602081019091529081529250612408915050565b60608160000180548060200260200160405190810160405280929190818152602001828054801561228657602002820191906000526020600020905b81546001600160a01b03168152600190910190602001808311612268575b50505050509050919050565b60005b81518110156113c95760008282815181106122c057634e487b7160e01b600052603260045260246000fd5b60200260200101519050808285015550806122da90614b5a565b9050612295565b6001600160a01b0383166123455760405162461bcd60e51b815260206004820152602560248201527f5375706572546f6b656e3a20617070726f76652066726f6d207a65726f206164604482015264647265737360d81b6064820152608401610c67565b6001600160a01b0382166123a75760405162461bcd60e51b815260206004820152602360248201527f5375706572546f6b656e3a20617070726f766520746f207a65726f206164647260448201526265737360e81b6064820152608401610c67565b6001600160a01b0383811660008181526012602090815260408083209487168084529482529182902085905590518481527f8c5be1e5ebec7d5bd14f71427d1e84f3dd0314c0f7b2291e5b200ac8c7c3b925910160405180910390a3505050565b600f546001600160a01b03166124605760405162461bcd60e51b815260206004820152601f60248201527f5375706572546f6b656e3a206e6f20756e6465726c79696e6720746f6b656e006044820152606401610c67565b60008061246c85613412565b9150915061247d87878387876130dd565b600f546040516370a0823160e01b81523060048201526000916001600160a01b0316906370a082319060240160206040518083038186803b1580156124c157600080fd5b505afa1580156124d5573d6000803e3d6000fd5b505050506040513d601f19601f820116820180604052508101906124f991906142f2565b600f54909150612513906001600160a01b031688856134ce565b600f546040516370a0823160e01b81523060048201526000916001600160a01b0316906370a082319060240160206040518083038186803b15801561255757600080fd5b505afa15801561256b573d6000803e3d6000fd5b505050506040513d601f19601f8201168201806040525081019061258f91906142f2565b9050600061259d8383613531565b90508085146125be5760405162461bcd60e51b8152600401610c6790614652565b886001600160a01b03167f3bc27981aebbb57f9247dc00fde9d6cd91e4b230083fec3238fedbcba1f9ab3d856040516125f991815260200190565b60405180910390a250505050505050505050565b6000805b8281101561263f5783810154801561262e57600192505050610c37565b5061263881614b5a565b9050612611565b5060009392505050565b60006001600160a01b0384166126715760405162461bcd60e51b8152600401610c67906146af565b6001600160a01b0383166126975760405162461bcd60e51b8152600401610c6790614820565b60003390506126c881868686604051806020016040528060008152506040518060200160405280600081525061353d565b6126f4818686866040518060200160405280600081525060405180602001604052806000815250613673565b846001600160a01b0316866001600160a01b031614612787576127878587611090866040518060600160405280602d8152602001614be1602d9139601260008c6001600160a01b03166001600160a01b0316815260200190815260200160002060008d6001600160a01b03166001600160a01b03168152602001908152602001600020546131e49092919063ffffffff16565b6127b58186868660405180602001604052806000815250604051806020016040528060008152506000613724565b50600195945050505050565b60005b818110156113c9576000838201556127db81614b5a565b90506127c4565b6000610e2f8284614935565b6040516329965a1d60e01b81526001600160a01b03821660048201527fac7fbab5f54a3ca8194167523c6753bfeb96a445279294b6125b68cce21770546024820152306044820152731820a4b7618bde71dce8cdc73aab6c95905fad24906329965a1d90606401600060405180830381600087803b15801561286f57600080fd5b505af1158015612883573d6000803e3d6000fd5b50506040516329965a1d60e01b81526001600160a01b03841660048201527faea199e31a596269b42cdafd93407f14436db6e4cad65417994c2eb37381e05a6024820152306044820152731820a4b7618bde71dce8cdc73aab6c95905fad2492506329965a1d9150606401600060405180830381600087803b15801561290857600080fd5b505af1158015610e17573d6000803e3d6000fd5b600f546001600160a01b03166129745760405162461bcd60e51b815260206004820152601f60248201527f5375706572546f6b656e3a206e6f20756e6465726c79696e6720746f6b656e006044820152606401610c67565b60008061298085613412565b600f546040516370a0823160e01b81523060048201529294509092506000916001600160a01b03909116906370a082319060240160206040518083038186803b1580156129cc57600080fd5b505afa1580156129e0573d6000803e3d6000fd5b505050506040513d601f19601f82011682018060405250810190612a0491906142f2565b600f54909150612a1f906001600160a01b03168930866138c3565b600f546040516370a0823160e01b81523060048201526000916001600160a01b0316906370a082319060240160206040518083038186803b158015612a6357600080fd5b505afa158015612a77573d6000803e3d6000fd5b505050506040513d601f19601f82011682018060405250810190612a9b91906142f2565b90506000612aa98284613531565b9050808514612aca5760405162461bcd60e51b8152600401610c6790614652565b612aed8b8a868c6001600160a01b03168e6001600160a01b031614158b8b613210565b886001600160a01b03167f25ca84076773b0455db53621c459ddc84fe40840e4932a62706a032566f399df85604051612b2891815260200190565b60405180910390a25050505050505050505050565b6000612b677f360894a13ba1a3210667c828492db98dca3e2076cc3735a920a3ca505d382bbc5490565b6001600160a01b03161415612bbe5760405162461bcd60e51b815260206004820152601d60248201527f5555505350726f786961626c653a206e6f742075706772616461626c650000006044820152606401610c67565b806001600160a01b03166352d1902d6040518163ffffffff1660e01b815260040160206040518083038186803b158015612bf757600080fd5b505afa158015612c0b573d6000803e3d6000fd5b505050506040513d601f19601f82011682018060405250810190612c2f91906142f2565b7f6bfbb132610e56cb96575dba244667b9d6dbfeffe22b68a79fa16f2d18eb001914612ca95760405162461bcd60e51b815260206004820152602360248201527f5555505350726f786961626c653a206e6f7420636f6d70617469626c65206c6f60448201526267696360e81b6064820152608401610c67565b612cd1817f360894a13ba1a3210667c828492db98dca3e2076cc3735a920a3ca505d382bbc55565b7fe011bc04c286c344a8fcbb8de77f953da762c3e25d8cdea984147fc4168a5dcc7f6bfbb132610e56cb96575dba244667b9d6dbfeffe22b68a79fa16f2d18eb0019604080519182526001600160a01b03841660208301520160405180910390a150565b6060816001600160401b03811115612d5d57634e487b7160e01b600052604160045260246000fd5b604051908082528060200260200182016040528015612d86578160200160208202803683370190505b50905060005b82811015612dd957600081850154905080838381518110612dbd57634e487b7160e01b600052603260045260246000fd5b602090810291909101015250612dd281614b5a565b9050612d8c565b5092915050565b6000816001600160a01b0316836001600160a01b03161480612e4f57506001600160a01b038316600090815260018501602052604090205460ff168015612e4f57506001600160a01b03808316600090815260038601602090815260408083209387168352929052205460ff16155b80610e2c57506001600160a01b03808316600090815260028601602090815260408083209387168352929052205460ff1690509392505050565b6001600160a01b038616612eaf5760405162461bcd60e51b8152600401610c67906146af565b6001600160a01b038516612ed55760405162461bcd60e51b8152600401610c6790614820565b612ee387878787878761353d565b612ef1878787878787613673565b61119687878787878787613724565b600e80546001600160a01b038381166001600160a01b0319831681179093556040519116919082907f8be0079c531659141344cd1fd0a4f28419497f9722a3daafe3b4186f6b6457e090600090a35050565b60006001600160ff1b03821115612fbc5760405162461bcd60e51b815260206004820152602860248201527f53616665436173743a2076616c756520646f65736e27742066697420696e2061604482015267371034b73a191a9b60c11b6064820152608401610c67565b5090565b6000610e2f82846148f4565b6000610e2f8284614a7a565b806001600160a01b0316826001600160a01b031614156130505760405162461bcd60e51b815260206004820152602d60248201527f4552433737374f70657261746f72733a20617574686f72697a696e672073656c60448201526c331030b99037b832b930ba37b960991b6064820152608401610c67565b6001600160a01b038116600090815260018401602052604090205460ff16156130a6576001600160a01b03918216600090815260039390930160209081526040808520929093168452529020805460ff19169055565b6001600160a01b0380831660009081526002850160209081526040808320938516835292905220805460ff19166001179055505050565b6001600160a01b03841661313e5760405162461bcd60e51b815260206004820152602260248201527f5375706572546f6b656e3a206275726e2066726f6d207a65726f206164647265604482015261737360f01b6064820152608401610c67565b61314d8585600086868661353d565b61315784846138fb565b836001600160a01b0316856001600160a01b03167fa78a9be3a7b862d26933ad85fb11d80ef66b8f972d7cbba06621d583943a409885858560405161319e93929190614899565b60405180910390a36040518381526000906001600160a01b038616907fddf252ad1be2c89b69c2b068fc378daa952ba7f163c4a11628f55a4df523b3ef90602001610c17565b600081848411156132085760405162461bcd60e51b8152600401610c679190614602565b505050900390565b6001600160a01b0385166132665760405162461bcd60e51b815260206004820181905260248201527f5375706572546f6b656e3a206d696e7420746f207a65726f20616464726573736044820152606401610c67565b61327085856139d1565b6132808660008787868689613724565b846001600160a01b0316866001600160a01b03167f2fe5be0146f74c5bce36c0b80911af6c7d86ff27e89d5cfa61fc681327954e5d8685856040516132c793929190614899565b60405180910390a36040518481526001600160a01b038616906000907fddf252ad1be2c89b69c2b068fc378daa952ba7f163c4a11628f55a4df523b3ef906020015b60405180910390a3505050505050565b6001600160a01b0381163314156133855760405162461bcd60e51b815260206004820152602a60248201527f4552433737374f70657261746f72733a207265766f6b696e672073656c662061604482015269399037b832b930ba37b960b11b6064820152608401610c67565b6001600160a01b038116600090815260018401602052604090205460ff16156133df576001600160a01b0380831660009081526003850160209081526040808320938516835292905220805460ff19166001179055505050565b6001600160a01b03918216600090815260029390930160209081526040808520929093168452529020805460ff19169055565b600f54600090819081906012600160a01b90910460ff16101561347157600f5461344790600160a01b900460ff166012614ad0565b61345290600a6149b0565b905061345e818561494d565b925061346a8184614a5b565b91506134c8565b600f546012600160a01b90910460ff1611156134c157600f546134a090601290600160a01b900460ff16614ad0565b6134ab90600a6149b0565b90506134b78185614a5b565b92508391506134c8565b8391508192505b50915091565b6040516001600160a01b0383166024820152604481018290526113c990849063a9059cbb60e01b906064015b60408051601f198184030181529190526020810180516001600160e01b03166001600160e01b031990931692909217909152613a29565b6000610e2f8284614ab9565b60405163555ddc6560e11b81526001600160a01b03861660048201527f29ddb589b1fb5fc7cf394961c1adf5f8c6454761adf795e67fe149f658abe8956024820152600090731820a4b7618bde71dce8cdc73aab6c95905fad249063aabbb8ca9060440160206040518083038186803b1580156135b957600080fd5b505afa1580156135cd573d6000803e3d6000fd5b505050506040513d601f19601f820116820180604052508101906135f19190613e23565b90506001600160a01b0381161561119657604051633ad5cbc160e11b81526001600160a01b038216906375ab978290613638908a908a908a908a908a908a906004016144e1565b600060405180830381600087803b15801561365257600080fd5b505af1158015613666573d6000803e3d6000fd5b5050505050505050505050565b613686858561368186612f52565b613afb565b836001600160a01b0316856001600160a01b0316876001600160a01b03167f06b541ddaa720db2b10a4d0cdac39b8d360425fc073085fac19bc826146779878686866040516136d793929190614899565b60405180910390a4836001600160a01b0316856001600160a01b03167fddf252ad1be2c89b69c2b068fc378daa952ba7f163c4a11628f55a4df523b3ef8560405161330991815260200190565b60405163555ddc6560e11b81526001600160a01b03861660048201527fb281fc8c12954d22544db45de3159a39272895b169a852b314f9cc762e44c53b6024820152600090731820a4b7618bde71dce8cdc73aab6c95905fad249063aabbb8ca9060440160206040518083038186803b1580156137a057600080fd5b505afa1580156137b4573d6000803e3d6000fd5b505050506040513d601f19601f820116820180604052508101906137d89190613e23565b90506001600160a01b03811615613854576040516223de2960e01b81526001600160a01b038216906223de299061381d908b908b908b908b908b908b906004016144e1565b600060405180830381600087803b15801561383757600080fd5b505af115801561384b573d6000803e3d6000fd5b50505050611471565b8115611471576001600160a01b0386163b156114715760405162461bcd60e51b815260206004820152602860248201527f5375706572546f6b656e3a206e6f7420616e20455243373737546f6b656e73526044820152671958da5c1a595b9d60c21b6064820152608401610c67565b6040516001600160a01b03808516602483015283166044820152606481018290526113709085906323b872dd60e01b906084016134fa565b60006139078342611f02565b5050905061391482612f52565b8112156139785760405162461bcd60e51b815260206004820152602c60248201527f5375706572666c756964546f6b656e3a206275726e20616d6f756e742065786360448201526b656564732062616c616e636560a01b6064820152608401610c67565b6139a361398483612f52565b6001600160a01b03851660009081526002602052604090205490612fcc565b6001600160a01b0384166000908152600260205260409020556003546139c99083613531565b600355505050565b6139fc6139dd82612f52565b6001600160a01b03841660009081526002602052604090205490612fc0565b6001600160a01b038316600090815260026020526040902055600354613a2290826127e2565b6003555050565b6000613a7e826040518060400160405280602081526020017f5361666545524332303a206c6f772d6c6576656c2063616c6c206661696c6564815250856001600160a01b0316613be49092919063ffffffff16565b8051909150156113c95780806020019051810190613a9c91906142d2565b6113c95760405162461bcd60e51b815260206004820152602a60248201527f5361666545524332303a204552433230206f7065726174696f6e20646964206e6044820152691bdd081cdd58d8d9595960b21b6064820152608401610c67565b6000613b078442611f02565b5050905081811215613b705760405162461bcd60e51b815260206004820152602c60248201527f5375706572666c756964546f6b656e3a206d6f766520616d6f756e742065786360448201526b656564732062616c616e636560a01b6064820152608401610c67565b6001600160a01b038416600090815260026020526040902054613b939083612fcc565b6001600160a01b038086166000908152600260205260408082209390935590851681522054613bc29083612fc0565b6001600160a01b03909316600090815260026020526040902092909255505050565b6060610e2c848460008585843b613c3d5760405162461bcd60e51b815260206004820152601d60248201527f416464726573733a2063616c6c20746f206e6f6e2d636f6e74726163740000006044820152606401610c67565b600080866001600160a01b03168587604051613c5991906144c5565b60006040518083038185875af1925050503d8060008114613c96576040519150601f19603f3d011682016040523d82523d6000602084013e613c9b565b606091505b5091509150613cab828286613cb6565b979650505050505050565b60608315613cc5575081610e2f565b825115613cd55782518084602001fd5b8160405162461bcd60e51b8152600401610c679190614602565b828054613cfb90614b1f565b90600052602060002090601f016020900481019282613d1d5760008555613d63565b82601f10613d365782800160ff19823516178555613d63565b82800160010185558215613d63579182015b82811115613d63578235825591602001919060010190613d48565b50612fbc9291505b80821115612fbc5760008155600101613d6b565b60008083601f840112613d90578182fd5b5081356001600160401b03811115613da6578182fd5b6020830191508360208260051b8501011115613dc157600080fd5b9250929050565b60008083601f840112613dd9578182fd5b5081356001600160401b03811115613def578182fd5b602083019150836020828501011115613dc157600080fd5b600060208284031215613e18578081fd5b8135610e2f81614ba1565b600060208284031215613e34578081fd5b8151610e2f81614ba1565b60008060408385031215613e51578081fd5b8235613e5c81614ba1565b91506020830135613e6c81614ba1565b809150509250929050565b60008060008060808587031215613e8c578182fd5b8435613e9781614ba1565b93506020850135613ea781614ba1565b92506040850135613eb781614ba1565b9396929550929360600135925050565b600080600060608486031215613edb578283fd5b8335613ee681614ba1565b92506020840135613ef681614ba1565b929592945050506040919091013590565b600080600080600080600060a0888a031215613f21578283fd5b8735613f2c81614ba1565b96506020880135613f3c81614ba1565b95506040880135945060608801356001600160401b0380821115613f5e578485fd5b613f6a8b838c01613dc8565b909650945060808a0135915080821115613f82578384fd5b50613f8f8a828b01613dc8565b989b979a50959850939692959293505050565b60008060008060808587031215613fb7578182fd5b8435613fc281614ba1565b93506020850135613fd281614ba1565b93969395505050506040820135916060013590565b600080600060608486031215613ffb578081fd5b833561400681614ba1565b95602085013595506040909401359392505050565b6000806040838503121561402d578182fd5b823561403881614ba1565b946020939093013593505050565b6000806000806060858703121561405b578182fd5b843561406681614ba1565b93506020850135925060408501356001600160401b03811115614087578283fd5b61409387828801613d7f565b95989497509550505050565b600080600080606085870312156140b4578182fd5b84356140bf81614ba1565b93506020850135925060408501356001600160401b038111156140e0578283fd5b61409387828801613dc8565b60008060008060008060808789031215614104578384fd5b863561410f81614ba1565b95506020870135945060408701356001600160401b0380821115614131578586fd5b61413d8a838b01613dc8565b90965094506060890135915080821115614155578384fd5b5061416289828a01613dc8565b979a9699509497509295939492505050565b600080600060608486031215614188578081fd5b833561419381614ba1565b9250602084810135925060408501356001600160401b03808211156141b6578384fd5b818701915087601f8301126141c9578384fd5b8135818111156141db576141db614b8b565b6141ed601f8201601f191685016148c4565b91508082528884828501011115614202578485fd5b808484018584013784848284010152508093505050509250925092565b60006020808385031215614231578182fd5b82516001600160401b0380821115614247578384fd5b818501915085601f83011261425a578384fd5b81518181111561426c5761426c614b8b565b8060051b915061427d8483016148c4565b8181528481019084860184860187018a1015614297578788fd5b8795505b838610156142c557805194506142b085614ba1565b8483526001959095019491860191860161429b565b5098975050505050505050565b6000602082840312156142e3578081fd5b81518015158114610e2f578182fd5b600060208284031215614303578081fd5b5051919050565b600080600080600060a08688031215614321578283fd5b85359450602086013561433381614ba1565b9350604086013561434381614ba1565b94979396509394606081013594506080013592915050565b60008060006040848603121561436f578081fd5b8335925060208401356001600160401b0381111561438b578182fd5b61439786828701613d7f565b9497909650939450505050565b600080604083850312156143b6578182fd5b50508035926020909101359150565b600080600080600080608087890312156143dd578384fd5b86356143e881614ba1565b9550602087013560ff811681146143fd578485fd5b945060408701356001600160401b0380821115614131578586fd5b60008060006060848603121561442c578081fd5b8351925060208401519150604084015190509250925092565b600060208284031215614456578081fd5b5035919050565b600080600060408486031215614471578081fd5b8335925060208401356001600160401b0381111561448d578182fd5b61439786828701613dc8565b600081518084526144b1816020860160208601614af3565b601f01601f19169290920160200192915050565b600082516144d7818460208701614af3565b9190910192915050565b6001600160a01b0387811682528681166020830152851660408201526060810184905260c06080820181905260009061451c90830185614499565b82810360a084015261452e8185614499565b9998505050505050505050565b6020808252825182820181905260009190848201906040850190845b8181101561457c5783516001600160a01b031683529284019291840191600101614557565b50909695505050505050565b6020808252825182820181905260009190848201906040850190845b8181101561457c578351835292840192918401916001016145a4565b838152604060208201819052810182905260006001600160fb1b038311156145e6578081fd5b8260051b80856060850137919091016060019081529392505050565b602081526000610e2f6020830184614499565b6060808252600d908201526c41677265656d656e744461746160981b60808201526001600160a01b03929092166020830152604082015260a00190565b6020808252603a908201527f5375706572546f6b656e3a20696e666c6174696f6e6172792f6465666c61746960408201527f6f6e61727920746f6b656e73206e6f7420737570706f72746564000000000000606082015260800190565b60208082526026908201527f5375706572546f6b656e3a207472616e736665722066726f6d207a65726f206160408201526564647265737360d01b606082015260800190565b6020808252602b908201527f5375706572666c756964546f6b656e3a204f6e6c7920686f737420636f6e747260408201526a1858dd08185b1b1bddd95960aa1b606082015260800190565b6080808252600e908201526d41677265656d656e74537461746560901b60a08201526001600160a01b039384166020820152919092166040820152606081019190915260c00190565b60208082526027908201527f5375706572666c756964546f6b656e3a206f6e6c79206c6973746564206167726040820152661959595b595b9d60ca1b606082015260800190565b60208082526030908201527f5375706572546f6b656e3a2063616c6c6572206973206e6f7420616e206f706560408201526f3930ba37b9103337b9103437b63232b960811b606082015260800190565b60208082526024908201527f5375706572546f6b656e3a207472616e7366657220746f207a65726f206164646040820152637265737360e01b606082015260800190565b6020808252818101527f4f776e61626c653a2063616c6c6572206973206e6f7420746865206f776e6572604082015260600190565b8381526060602082015260006148b26060830185614499565b82810360408401526112bf8185614499565b604051601f8201601f191681016001600160401b03811182821017156148ec576148ec614b8b565b604052919050565b600080821280156001600160ff1b038490038513161561491657614916614b75565b600160ff1b839003841281161561492f5761492f614b75565b50500190565b6000821982111561494857614948614b75565b500190565b60008261496857634e487b7160e01b81526012600452602481fd5b500490565b600181815b808511156149a857816000190482111561498e5761498e614b75565b8085161561499b57918102915b93841c9390800290614972565b509250929050565b6000610e2f60ff8416836000826149c957506001610c37565b816149d657506000610c37565b81600181146149ec57600281146149f657614a12565b6001915050610c37565b60ff841115614a0757614a07614b75565b50506001821b610c37565b5060208310610133831016604e8410600b8410161715614a35575081810a610c37565b614a3f838361496d565b8060001904821115614a5357614a53614b75565b029392505050565b6000816000190483118215151615614a7557614a75614b75565b500290565b60008083128015600160ff1b850184121615614a9857614a98614b75565b6001600160ff1b0384018313811615614ab357614ab3614b75565b50500390565b600082821015614acb57614acb614b75565b500390565b600060ff821660ff841680821015614aea57614aea614b75565b90039392505050565b60005b83811015614b0e578181015183820152602001614af6565b838111156113705750506000910152565b600181811c90821680614b3357607f821691505b60208210811415614b5457634e487b7160e01b600052602260045260246000fd5b50919050565b6000600019821415614b6e57614b6e614b75565b5060010190565b634e487b7160e01b600052601160045260246000fd5b634e487b7160e01b600052604160045260246000fd5b6001600160a01b0381168114610c9b57600080fdfe5375706572546f6b656e3a2064656372656173656420616c6c6f77616e63652062656c6f77207a65726f5375706572546f6b656e3a207472616e7366657220616d6f756e74206578636565647320616c6c6f77616e6365a26469706673582212202054a1f988019733f317e2974a93fddf9f1698c75d4003cb7e0143856b2d3c6a64736f6c63430008040033",
  "linkReferences": {},
  "deployedLinkReferences": {}
}