{
  "_format": "hh-sol-artifact-1",
  "contractName": "REXOneWayMarket",
  "sourceName": "contracts/REXOneWayMarket.sol",
  "abi": [
    {
      "inputs": [
        {
          "internalType": "address",
          "name": "_owner",
          "type": "address"
        },
        {
          "internalType": "contract ISuperfluid",
          "name": "_host",
          "type": "address"
        },
        {
          "internalType": "contract IConstantFlowAgreementV1",
          "name": "_cfa",
          "type": "address"
        },
        {
          "internalType": "contract IInstantDistributionAgreementV1",
          "name": "_ida",
          "type": "address"
        },
        {
          "internalType": "string",
          "name": "_registrationKey",
          "type": "string"
        },
        {
          "internalType": "contract IREXReferral",
          "name": "_rexReferral",
          "type": "address"
        }
      ],
      "stateMutability": "nonpayable",
      "type": "constructor"
    },
    {
      "anonymous": false,
      "inputs": [
        {
          "indexed": false,
          "internalType": "uint256",
          "name": "totalAmount",
          "type": "uint256"
        },
        {
          "indexed": false,
          "internalType": "uint256",
          "name": "feeCollected",
          "type": "uint256"
        },
        {
          "indexed": false,
          "internalType": "address",
          "name": "token",
          "type": "address"
        }
      ],
      "name": "Distribution",
      "type": "event"
    },
    {
      "anonymous": false,
      "inputs": [
        {
          "indexed": true,
          "internalType": "address",
          "name": "previousOwner",
          "type": "address"
        },
        {
          "indexed": true,
          "internalType": "address",
          "name": "newOwner",
          "type": "address"
        }
      ],
      "name": "OwnershipTransferred",
      "type": "event"
    },
    {
      "inputs": [
        {
          "internalType": "contract ISuperToken",
          "name": "_token",
          "type": "address"
        },
        {
          "internalType": "uint128",
          "name": "_feeRate",
          "type": "uint128"
        },
        {
          "internalType": "uint256",
          "name": "_emissionRate",
          "type": "uint256"
        },
        {
          "internalType": "uint256",
          "name": "_requestId",
          "type": "uint256"
        }
      ],
      "name": "addOutputPool",
      "outputs": [],
      "stateMutability": "nonpayable",
      "type": "function"
    },
    {
      "inputs": [
        {
          "internalType": "contract ISuperToken",
          "name": "_superToken",
          "type": "address"
        },
        {
          "internalType": "address",
          "name": "_agreementClass",
          "type": "address"
        },
        {
          "internalType": "bytes32",
          "name": "",
          "type": "bytes32"
        },
        {
          "internalType": "bytes",
          "name": "_agreementData",
          "type": "bytes"
        },
        {
          "internalType": "bytes",
          "name": "",
          "type": "bytes"
        },
        {
          "internalType": "bytes",
          "name": "_ctx",
          "type": "bytes"
        }
      ],
      "name": "afterAgreementCreated",
      "outputs": [
        {
          "internalType": "bytes",
          "name": "_newCtx",
          "type": "bytes"
        }
      ],
      "stateMutability": "nonpayable",
      "type": "function"
    },
    {
      "inputs": [
        {
          "internalType": "contract ISuperToken",
          "name": "_superToken",
          "type": "address"
        },
        {
          "internalType": "address",
          "name": "",
          "type": "address"
        },
        {
          "internalType": "bytes32",
          "name": "",
          "type": "bytes32"
        },
        {
          "internalType": "bytes",
          "name": "_agreementData",
          "type": "bytes"
        },
        {
          "internalType": "bytes",
          "name": "_cbdata",
          "type": "bytes"
        },
        {
          "internalType": "bytes",
          "name": "_ctx",
          "type": "bytes"
        }
      ],
      "name": "afterAgreementTerminated",
      "outputs": [
        {
          "internalType": "bytes",
          "name": "_newCtx",
          "type": "bytes"
        }
      ],
      "stateMutability": "nonpayable",
      "type": "function"
    },
    {
      "inputs": [
        {
          "internalType": "contract ISuperToken",
          "name": "_superToken",
          "type": "address"
        },
        {
          "internalType": "address",
          "name": "_agreementClass",
          "type": "address"
        },
        {
          "internalType": "bytes32",
          "name": "",
          "type": "bytes32"
        },
        {
          "internalType": "bytes",
          "name": "_agreementData",
          "type": "bytes"
        },
        {
          "internalType": "bytes",
          "name": "_cbdata",
          "type": "bytes"
        },
        {
          "internalType": "bytes",
          "name": "_ctx",
          "type": "bytes"
        }
      ],
      "name": "afterAgreementUpdated",
      "outputs": [
        {
          "internalType": "bytes",
          "name": "_newCtx",
          "type": "bytes"
        }
      ],
      "stateMutability": "nonpayable",
      "type": "function"
    },
    {
      "inputs": [
        {
          "internalType": "contract ISuperToken",
          "name": "_superToken",
          "type": "address"
        },
        {
          "internalType": "address",
          "name": "_agreementClass",
          "type": "address"
        },
        {
          "internalType": "bytes32",
          "name": "",
          "type": "bytes32"
        },
        {
          "internalType": "bytes",
          "name": "_agreementData",
          "type": "bytes"
        },
        {
          "internalType": "bytes",
          "name": "",
          "type": "bytes"
        }
      ],
      "name": "beforeAgreementCreated",
      "outputs": [
        {
          "internalType": "bytes",
          "name": "_cbdata",
          "type": "bytes"
        }
      ],
      "stateMutability": "view",
      "type": "function"
    },
    {
      "inputs": [
        {
          "internalType": "contract ISuperToken",
          "name": "_superToken",
          "type": "address"
        },
        {
          "internalType": "address",
          "name": "_agreementClass",
          "type": "address"
        },
        {
          "internalType": "bytes32",
          "name": "",
          "type": "bytes32"
        },
        {
          "internalType": "bytes",
          "name": "_agreementData",
          "type": "bytes"
        },
        {
          "internalType": "bytes",
          "name": "",
          "type": "bytes"
        }
      ],
      "name": "beforeAgreementTerminated",
      "outputs": [
        {
          "internalType": "bytes",
          "name": "_cbdata",
          "type": "bytes"
        }
      ],
      "stateMutability": "view",
      "type": "function"
    },
    {
      "inputs": [
        {
          "internalType": "contract ISuperToken",
          "name": "_superToken",
          "type": "address"
        },
        {
          "internalType": "address",
          "name": "_agreementClass",
          "type": "address"
        },
        {
          "internalType": "bytes32",
          "name": "",
          "type": "bytes32"
        },
        {
          "internalType": "bytes",
          "name": "_agreementData",
          "type": "bytes"
        },
        {
          "internalType": "bytes",
          "name": "_ctx",
          "type": "bytes"
        }
      ],
      "name": "beforeAgreementUpdated",
      "outputs": [
        {
          "internalType": "bytes",
          "name": "_cbdata",
          "type": "bytes"
        }
      ],
      "stateMutability": "view",
      "type": "function"
    },
    {
      "inputs": [
        {
          "internalType": "bytes",
          "name": "ctx",
          "type": "bytes"
        }
      ],
      "name": "distribute",
      "outputs": [
        {
          "internalType": "bytes",
          "name": "newCtx",
          "type": "bytes"
        }
      ],
      "stateMutability": "nonpayable",
      "type": "function"
    },
    {
      "inputs": [
        {
          "internalType": "address",
          "name": "streamer",
          "type": "address"
        }
      ],
      "name": "emergencyCloseStream",
      "outputs": [],
      "stateMutability": "nonpayable",
      "type": "function"
    },
    {
      "inputs": [],
      "name": "emergencyDrain",
      "outputs": [],
      "stateMutability": "nonpayable",
      "type": "function"
    },
    {
      "inputs": [
        {
          "internalType": "uint256",
          "name": "_requestId",
          "type": "uint256"
        }
      ],
      "name": "getCurrentValue",
      "outputs": [
        {
          "internalType": "bool",
          "name": "_ifRetrieve",
          "type": "bool"
        },
        {
          "internalType": "uint256",
          "name": "_value",
          "type": "uint256"
        },
        {
          "internalType": "uint256",
          "name": "_timestampRetrieved",
          "type": "uint256"
        }
      ],
      "stateMutability": "view",
      "type": "function"
    },
    {
      "inputs": [
        {
          "internalType": "uint32",
          "name": "_index",
          "type": "uint32"
        }
      ],
      "name": "getEmissionRate",
      "outputs": [
        {
          "internalType": "uint256",
          "name": "",
          "type": "uint256"
        }
      ],
      "stateMutability": "view",
      "type": "function"
    },
    {
      "inputs": [
        {
          "internalType": "uint32",
          "name": "_index",
          "type": "uint32"
        }
      ],
      "name": "getFeeRate",
      "outputs": [
        {
          "internalType": "uint128",
          "name": "",
          "type": "uint128"
        }
      ],
      "stateMutability": "view",
      "type": "function"
    },
    {
      "inputs": [
        {
          "internalType": "uint32",
          "name": "_index",
          "type": "uint32"
        },
        {
          "internalType": "address",
          "name": "_streamer",
          "type": "address"
        }
      ],
      "name": "getIDAShares",
      "outputs": [
        {
          "internalType": "bool",
          "name": "_exist",
          "type": "bool"
        },
        {
          "internalType": "bool",
          "name": "_approved",
          "type": "bool"
        },
        {
          "internalType": "uint128",
          "name": "_units",
          "type": "uint128"
        },
        {
          "internalType": "uint256",
          "name": "_pendingDistribution",
          "type": "uint256"
        }
      ],
      "stateMutability": "view",
      "type": "function"
    },
    {
      "inputs": [],
      "name": "getInputToken",
      "outputs": [
        {
          "internalType": "contract ISuperToken",
          "name": "",
          "type": "address"
        }
      ],
      "stateMutability": "view",
      "type": "function"
    },
    {
      "inputs": [],
      "name": "getLastDistributionAt",
      "outputs": [
        {
          "internalType": "uint256",
          "name": "",
          "type": "uint256"
        }
      ],
      "stateMutability": "view",
      "type": "function"
    },
    {
      "inputs": [
        {
          "internalType": "contract ISuperToken",
          "name": "token",
          "type": "address"
        }
      ],
      "name": "getOracleInfo",
      "outputs": [
        {
          "components": [
            {
              "internalType": "uint256",
              "name": "requestId",
              "type": "uint256"
            },
            {
              "internalType": "uint256",
              "name": "usdPrice",
              "type": "uint256"
            },
            {
              "internalType": "uint256",
              "name": "lastUpdatedAt",
              "type": "uint256"
            }
          ],
          "internalType": "struct REXMarket.OracleInfo",
          "name": "",
          "type": "tuple"
        }
      ],
      "stateMutability": "view",
      "type": "function"
    },
    {
      "inputs": [
        {
          "internalType": "uint32",
          "name": "_index",
          "type": "uint32"
        }
      ],
      "name": "getOuputPool",
      "outputs": [
        {
          "components": [
            {
              "internalType": "contract ISuperToken",
              "name": "token",
              "type": "address"
            },
            {
              "internalType": "uint128",
              "name": "feeRate",
              "type": "uint128"
            },
            {
              "internalType": "uint256",
              "name": "emissionRate",
              "type": "uint256"
            }
          ],
          "internalType": "struct REXMarket.OutputPool",
          "name": "",
          "type": "tuple"
        }
      ],
      "stateMutability": "view",
      "type": "function"
    },
    {
      "inputs": [],
      "name": "getRateTolerance",
      "outputs": [
        {
          "internalType": "uint256",
          "name": "",
          "type": "uint256"
        }
      ],
      "stateMutability": "view",
      "type": "function"
    },
    {
      "inputs": [
        {
          "internalType": "address",
          "name": "_streamer",
          "type": "address"
        },
        {
          "internalType": "contract ISuperToken",
          "name": "_token",
          "type": "address"
        }
      ],
      "name": "getStreamRate",
      "outputs": [
        {
          "internalType": "int96",
          "name": "_requesterFlowRate",
          "type": "int96"
        }
      ],
      "stateMutability": "view",
      "type": "function"
    },
    {
      "inputs": [],
      "name": "getTellorOracle",
      "outputs": [
        {
          "internalType": "address",
          "name": "",
          "type": "address"
        }
      ],
      "stateMutability": "view",
      "type": "function"
    },
    {
      "inputs": [],
      "name": "getTotalInflow",
      "outputs": [
        {
          "internalType": "int96",
          "name": "",
          "type": "int96"
        }
      ],
      "stateMutability": "view",
      "type": "function"
    },
    {
      "inputs": [
        {
          "internalType": "contract ISuperToken",
          "name": "_inputToken",
          "type": "address"
        },
        {
          "internalType": "uint256",
          "name": "_rateTolerance",
          "type": "uint256"
        },
        {
          "internalType": "contract ITellor",
          "name": "_tellor",
          "type": "address"
        },
        {
          "internalType": "uint256",
          "name": "_inputTokenRequestId",
          "type": "uint256"
        },
        {
          "internalType": "uint128",
          "name": "_affiliateFee",
          "type": "uint128"
        },
        {
          "internalType": "uint128",
          "name": "_feeRate",
          "type": "uint128"
        }
      ],
      "name": "initializeMarket",
      "outputs": [],
      "stateMutability": "nonpayable",
      "type": "function"
    },
    {
      "inputs": [
        {
          "internalType": "contract IUniswapV2Router02",
          "name": "_router",
          "type": "address"
        },
        {
          "internalType": "contract ITellor",
          "name": "_tellor",
          "type": "address"
        },
        {
          "internalType": "contract ISuperToken",
          "name": "_inputToken",
          "type": "address"
        },
        {
          "internalType": "uint256",
          "name": "_rateTolerance",
          "type": "uint256"
        },
        {
          "internalType": "uint256",
          "name": "_inputTokenRequestId",
          "type": "uint256"
        },
        {
          "internalType": "contract ISuperToken",
          "name": "_outputToken",
          "type": "address"
        },
        {
          "internalType": "uint128",
          "name": "_feeRate",
          "type": "uint128"
        },
        {
          "internalType": "uint256",
          "name": "_ouptutTokenRequestId",
          "type": "uint256"
        }
      ],
      "name": "initializeOneWayMarket",
      "outputs": [],
      "stateMutability": "nonpayable",
      "type": "function"
    },
    {
      "inputs": [],
      "name": "isAppJailed",
      "outputs": [
        {
          "internalType": "bool",
          "name": "",
          "type": "bool"
        }
      ],
      "stateMutability": "view",
      "type": "function"
    },
    {
      "inputs": [],
      "name": "owner",
      "outputs": [
        {
          "internalType": "address",
          "name": "",
          "type": "address"
        }
      ],
      "stateMutability": "view",
      "type": "function"
    },
    {
      "inputs": [],
      "name": "renounceOwnership",
      "outputs": [],
      "stateMutability": "nonpayable",
      "type": "function"
    },
    {
      "inputs": [
        {
          "internalType": "uint32",
          "name": "_index",
          "type": "uint32"
        },
        {
          "internalType": "uint128",
          "name": "_emissionRate",
          "type": "uint128"
        }
      ],
      "name": "setEmissionRate",
      "outputs": [],
      "stateMutability": "nonpayable",
      "type": "function"
    },
    {
      "inputs": [
        {
          "internalType": "uint32",
          "name": "_index",
          "type": "uint32"
        },
        {
          "internalType": "uint128",
          "name": "_feeRate",
          "type": "uint128"
        }
      ],
      "name": "setFeeRate",
      "outputs": [],
      "stateMutability": "nonpayable",
      "type": "function"
    },
    {
      "inputs": [
        {
          "internalType": "uint256",
          "name": "_rate",
          "type": "uint256"
        }
      ],
      "name": "setRateTolerance",
      "outputs": [],
      "stateMutability": "nonpayable",
      "type": "function"
    },
    {
      "inputs": [
        {
          "internalType": "address",
          "name": "_router",
          "type": "address"
        }
      ],
      "name": "setRouter",
      "outputs": [],
      "stateMutability": "nonpayable",
      "type": "function"
    },
    {
      "inputs": [
        {
          "internalType": "address",
          "name": "newOwner",
          "type": "address"
        }
      ],
      "name": "transferOwnership",
      "outputs": [],
      "stateMutability": "nonpayable",
      "type": "function"
    },
    {
      "inputs": [
        {
          "internalType": "contract ISuperToken",
          "name": "_token",
          "type": "address"
        }
      ],
      "name": "updateTokenPrice",
      "outputs": [],
      "stateMutability": "nonpayable",
      "type": "function"
    },
    {
      "inputs": [],
      "name": "updateTokenPrices",
      "outputs": [],
      "stateMutability": "nonpayable",
      "type": "function"
    }
  ],
  "bytecode": "0x60806040523480156200001157600080fd5b50604051620054c9380380620054c98339810160408190526200003491620002be565b858585858585620000453362000187565b600180546001600160a01b038088166001600160a01b0319928316179092556002805487841690831617905560038054868416908316179055600e8054928416929091169190911790556200009a86620001d7565b815160019015620001135760015460405163bd1c448b60e01b81526001600160a01b039091169063bd1c448b90620000d99084908790600401620003dc565b600060405180830381600087803b158015620000f457600080fd5b505af115801562000109573d6000803e3d6000fd5b5050505062000174565b6001546040516315a722b960e31b8152600481018390526001600160a01b039091169063ad3915c890602401600060405180830381600087803b1580156200015a57600080fd5b505af11580156200016f573d6000803e3d6000fd5b505050505b5050505050505050505050505062000477565b600080546001600160a01b038381166001600160a01b0319831681178455604051919092169283917f8be0079c531659141344cd1fd0a4f28419497f9722a3daafe3b4186f6b6457e09190a35050565b6000546001600160a01b03163314620002375760405162461bcd60e51b815260206004820181905260248201527f4f776e61626c653a2063616c6c6572206973206e6f7420746865206f776e657260448201526064015b60405180910390fd5b6001600160a01b0381166200029e5760405162461bcd60e51b815260206004820152602660248201527f4f776e61626c653a206e6577206f776e657220697320746865207a65726f206160448201526564647265737360d01b60648201526084016200022e565b620002a98162000187565b50565b8051620002b98162000461565b919050565b60008060008060008060c08789031215620002d7578182fd5b8651620002e48162000461565b6020880151909650620002f78162000461565b60408801519095506200030a8162000461565b60608801519094506200031d8162000461565b60808801519093506001600160401b03808211156200033a578384fd5b818901915089601f8301126200034e578384fd5b8151818111156200036357620003636200044b565b604051601f8201601f19908116603f011681019083821181831017156200038e576200038e6200044b565b816040528281528c6020848701011115620003a7578687fd5b620003ba83602083016020880162000418565b8096505050505050620003d060a08801620002ac565b90509295509295509295565b82815260406020820152600082518060408401526200040381606085016020870162000418565b601f01601f1916919091016060019392505050565b60005b83811015620004355781810151838201526020016200041b565b8381111562000445576000848401525b50505050565b634e487b7160e01b600052604160045260246000fd5b6001600160a01b0381168114620002a957600080fd5b61504280620004876000396000f3fe608060405234801561001057600080fd5b50600436106102065760003560e01c8063884d1f401161011a578063c51f8f4e116100ad578063e52e43da1161007c578063e52e43da1461053e578063e8e75cbd1461054f578063f19a31c214610599578063f2fde38b146105ac578063fe1b09dd146105bf57600080fd5b8063c51f8f4e146104fd578063cdf5bd7514610510578063d33fcc0814610518578063d86ed3e51461052b57600080fd5b8063bfdb6b04116100e9578063bfdb6b041461049a578063c0d78655146104cf578063c12fc38b146104e2578063c24c14e0146104f557600080fd5b8063884d1f40146104515780638d21b593146104645780638da5cb5b14610476578063b9bb02291461048757600080fd5b8063416c339d1161019d5780635f9e7d771161016c5780635f9e7d7714610357578063715018a61461036a57806380f8620f1461037257806381dca2b61461039757806383688be61461043e57600080fd5b8063416c339d1461030357806353c11f991461031e57806358a61d3d146103315780635ce81f991461034457600080fd5b8063230dbd29116101d9578063230dbd29146102985780632caac08b146102b857806330d9c915146102c05780633fcad964146102d357600080fd5b80630c9dfd1e1461020b5780630f2dc3d61461025857806315843a011461026d5780632174661514610285575b600080fd5b61021e6102193660046147e0565b6105e8565b60405161024f9493929190931515845291151560208401526001600160801b03166040830152606082015260800190565b60405180910390f35b61026b61026636600461401c565b6106a7565b005b61027561084d565b604051901515815260200161024f565b61026b61029336600461401c565b6108ce565b6102ab6102a63660046143c3565b6109d7565b60405161024f91906148ac565b61026b610b59565b6102ab6102ce366004614327565b610ed5565b6102e66102e13660046145cb565b610f19565b60408051931515845260208401929092529082015260600161024f565b61030b61110a565b604051600b9190910b815260200161024f565b6102ab61032c3660046143c3565b611194565b61026b61033f3660046145cb565b61144a565b61026b6103523660046147fb565b611479565b6102ab610365366004614327565b6114cc565b61026b61160a565b6004546001600160a01b03165b6040516001600160a01b03909116815260200161024f565b61040a6103a53660046147c6565b60408051606080820183526000808352602080840182905292840181905263ffffffff949094168452600b8252928290208251938401835280546001600160a01b0316845260018101546001600160801b031691840191909152600201549082015290565b6040805182516001600160a01b031681526020808401516001600160801b031690820152918101519082015260600161024f565b61026b61044c3660046144cf565b611640565b6102ab61045f366004614327565b61175c565b6007545b60405190815260200161024f565b6000546001600160a01b031661037f565b61030b61049536600461408c565b611854565b6104ad6104a836600461401c565b6118eb565b604080518251815260208084015190820152918101519082015260600161024f565b61026b6104dd36600461401c565b611951565b6102ab6104f036600461421f565b61199d565b61026b611fd6565b61026b61050b36600461453e565b61203b565b600654610468565b61026b61052636600461448a565b612288565b6102ab6105393660046143c3565b612475565b6005546001600160a01b031661037f565b61058161055d3660046147c6565b63ffffffff166000908152600b60205260409020600101546001600160801b031690565b6040516001600160801b03909116815260200161024f565b61026b6105a73660046147fb565b6125e4565b61026b6105ba36600461401c565b612647565b6104686105cd3660046147c6565b63ffffffff166000908152600b602052604090206002015490565b60035463ffffffff83166000818152600b6020526040808220549051635b53405160e01b81526001600160a01b0391821660048201523060248201526044810193909352848116606484015290928392839283921690635b5340519060840160806040518083038186803b15801561065f57600080fd5b505afa158015610673573d6000803e3d6000fd5b505050506040513d601f19601f820116820180604052508101906106979190614160565b9299919850965090945092505050565b600154604051636b4f333560e01b81523060048201526000916001600160a01b031690636b4f33359060240160206040518083038186803b1580156106eb57600080fd5b505afa1580156106ff573d6000803e3d6000fd5b505050506040513d601f19601f820116820180604052508101906107239190614146565b9050806107615760405162461bcd60e51b8152602060048201526007602482015266085a985a5b195960ca1b60448201526064015b60405180910390fd5b6001546002546005546040805160008152602081019091526001600160a01b03938416936339255d5b93811692635a5999e360e11b926107ac92909116908890309060448101614990565b60408051601f198184030181529181526020820180516001600160e01b03166001600160e01b03199485161790525160e085901b90921682526107f292916004016148bf565b600060405180830381600087803b15801561080c57600080fd5b505af1158015610820573d6000803e3d6000fd5b505050506040513d6000823e601f3d908101601f191682016040526108489190810190614293565b505050565b600154604051636b4f333560e01b81523060048201526000916001600160a01b031690636b4f33359060240160206040518083038186803b15801561089157600080fd5b505afa1580156108a5573d6000803e3d6000fd5b505050506040513d601f19601f820116820180604052508101906108c99190614146565b905090565b6108f5604051806040016040528060058152602001643a37b5b2b760d91b815250826126df565b6001600160a01b0381166000908152600a60205260408120548190819061091b90610f19565b925092509250826109615760405162461bcd60e51b815260206004820152601060248201526f2167657443757272656e7456616c756560801b6044820152606401610758565b61096d610e1042614ed6565b8110156109ac5760405162461bcd60e51b815260206004820152600d60248201526c2163757272656e7456616c756560981b6044820152606401610758565b6001600160a01b039093166000908152600a6020526040902060018101919091556002019190915550565b6060610a0f6040518060400160405280601581526020017418599d195c9059dc99595b595b9d155c19185d1959605a1b815250612728565b610a1761276b565b610a218a8a6127ad565b6005546001600160a01b038b81169116141580610a445750610a4289612886565b155b15610a885782828080601f016020809104026020016040519081016040528093929190818152602001838380828437600092019190915250929350610b4c92505050565b82828080601f0160208091040260200160405190810160405280939291908181526020018383808284376000920182905250939450839250610acf91508a9050898e612921565b5090925090506000610ae3878901896145cb565b9050610aed6129cf565b15610afe57610afb8461199d565b93505b60006040518060800160405280856001600160a01b0316815260200183600b0b815260200184600b0b81526020018f6001600160a01b03168152509050610b458582612b29565b9450505050505b9998505050505050505050565b6000546001600160a01b03163314610b835760405162461bcd60e51b815260040161075890614ae6565b60025460055460405163e8e7e2d160e01b81526001600160a01b03918216600482015230602482015291169063e8e7e2d19060440160206040518083038186803b158015610bd057600080fd5b505afa158015610be4573d6000803e3d6000fd5b505050506040513d601f19601f82011682018060405250810190610c0891906145e3565b600b0b15610c495760405162461bcd60e51b815260206004820152600e60248201526d217a65726f53747265616d65727360901b6044820152606401610758565b6005546001600160a01b031663a9059cbb610c6c6000546001600160a01b031690565b6005546040516370a0823160e01b81523060048201526001600160a01b03909116906370a082319060240160206040518083038186803b158015610caf57600080fd5b505afa158015610cc3573d6000803e3d6000fd5b505050506040513d601f19601f82011682018060405250810190610ce79190614207565b6040516001600160e01b031960e085901b1681526001600160a01b0390921660048301526024820152604401602060405180830381600087803b158015610d2d57600080fd5b505af1158015610d41573d6000803e3d6000fd5b505050506040513d601f19601f82011682018060405250810190610d659190614146565b5060005b600d5460ff1663ffffffff82161015610ed25763ffffffff81166000908152600b60205260409020546001600160a01b031663a9059cbb610db26000546001600160a01b031690565b63ffffffff84166000908152600b6020526040908190205490516370a0823160e01b81523060048201526001600160a01b03909116906370a082319060240160206040518083038186803b158015610e0957600080fd5b505afa158015610e1d573d6000803e3d6000fd5b505050506040513d601f19601f82011682018060405250810190610e419190614207565b6040516001600160e01b031960e085901b1681526001600160a01b0390921660048301526024820152604401602060405180830381600087803b158015610e8757600080fd5b505af1158015610e9b573d6000803e3d6000fd5b505050506040513d601f19601f82011682018060405250810190610ebf9190614146565b5080610eca81614f3c565b915050610d69565b50565b6060610f0e604051806040016040528060168152602001751899599bdc995059dc99595b595b9d10dc99585d195960521b815250612728565b979650505050505050565b6000806000610f4a6040518060400160405280600a81526020016917dc995c5d595cdd125960b21b81525085612cf1565b600480546040516311bbb87160e21b81529182018690526000916001600160a01b03909116906346eee1c49060240160206040518083038186803b158015610f9157600080fd5b505afa158015610fa5573d6000803e3d6000fd5b505050506040513d601f19601f82011682018060405250810190610fc99190614207565b6004549091506001600160a01b03166377fbb66386610fe9600185614ed6565b6040516001600160e01b031960e085901b1681526004810192909252602482015260440160206040518083038186803b15801561102557600080fd5b505afa158015611039573d6000803e3d6000fd5b505050506040513d601f19601f8201168201806040525081019061105d9190614207565b600480546040516393fa491560e01b81529294506001600160a01b0316916393fa491591611098918991879101918252602082015260400190565b60206040518083038186803b1580156110b057600080fd5b505afa1580156110c4573d6000803e3d6000fd5b505050506040513d601f19601f820116820180604052508101906110e89190614207565b925082156110fa576001935050611103565b60008093509350505b9193909250565b60025460055460405163e8e7e2d160e01b81526001600160a01b039182166004820152306024820152600092919091169063e8e7e2d19060440160206040518083038186803b15801561115c57600080fd5b505afa158015611170573d6000803e3d6000fd5b505050506040513d601f19601f820116820180604052508101906108c991906145e3565b60606111bf6040518060400160405280600781526020016619d85cd319599d60ca1b8152505a612cf1565b6111c761276b565b6112056040518060400160405280601881526020017f616674657241677265656d656e745465726d696e617465640000000000000000815250612728565b82828080601f016020809104026020016040519081016040528093929190818152602001838380828437600092018290525093945061124a9250505087890189614054565b50905060008061125c87890189614746565b9150915060006040518060800160405280856001600160a01b0316815260200183600b0b81526020016000600b0b81526020018f6001600160a01b031681525090506112a88582612b29565b94506112db6040518060400160405280600f81526020016e17dd5b9a5b9d995cdd105b5bdd5b9d608a1b81525084612cf1565b60408051808201825260098152683130b630b731b2a7b360b91b602082015260055491516370a0823160e01b815230600482015261137c926001600160a01b0316906370a08231906024015b60206040518083038186803b15801561133f57600080fd5b505afa158015611353573d6000803e3d6000fd5b505050506040513d601f19601f820116820180604052508101906113779190614207565b612cf1565b6005546040516323b872dd60e01b81523060048201526001600160a01b03868116602483015260448201869052909116906323b872dd90606401602060405180830381600087803b1580156113d057600080fd5b505af11580156113e4573d6000803e3d6000fd5b505050506040513d601f19601f820116820180604052508101906114089190614146565b506114396040518060400160405280600f81526020016e5f6166746572466c6f77526174653360881b815250612728565b505050509998505050505050505050565b6000546001600160a01b031633146114745760405162461bcd60e51b815260040161075890614ae6565b600755565b6000546001600160a01b031633146114a35760405162461bcd60e51b815260040161075890614ae6565b63ffffffff9091166000908152600b602052604090206001600160801b03909116600290910155565b606061150c6040518060400160405280601981526020017f6265666f726541677265656d656e745465726d696e6174656400000000000000815250612728565b6115356040518060400160405280600781526020016619d85cdb19599d60ca1b8152505a612cf1565b61153d61276b565b61154788886127ad565b600080600061155788888d612921565b925092509250600061157d82846bffffffffffffffffffffffff16600560010154612d36565b90508083600b0b60405160200161159e929190918252602082015260400190565b60408051808303601f19018152828201825260098352683130b630b731b2a7b360b91b602084015260055491516370a0823160e01b81523060048201529097506115fb92916001600160a01b0316906370a0823190602401611327565b50505050979650505050505050565b6000546001600160a01b031633146116345760405162461bcd60e51b815260040161075890614ae6565b61163e6000612da3565b565b6000546001600160a01b0316331461166a5760405162461bcd60e51b815260040161075890614ae6565b6005546001600160a01b0316156116b95760405162461bcd60e51b8152602060048201526013602482015272105b1c9958591e481a5b9a5d1a585b1a5e9959606a1b6044820152606401610758565b600580546001600160a01b038089166001600160a01b0319928316811790935560078890556001600160801b03848116908616600160801b026001600160801b0319161760085560048054918816919092161790556040805160608101825285815260006020808301828152838501838152958352600a9091529290208151815591516001830155915160029190910155611753876108ce565b50505050505050565b6060611776886005546001600160a01b0391821691161490565b1580611788575061178687612886565b155b156117cc5782828080601f016020809104026020016040519081016040528093929190818152602001838380828437600092019190915250929350610f0e92505050565b60006117d986868b612921565b5091505061180a60405180604001604052806008815260200167666c6f775261746560c01b81525082600b0b612cf1565b60408051600b83900b60208201520160408051601f198184030181528282019091526004825263446f6e6560e01b6020830152925061184890612728565b50979650505050505050565b600254604051631cd43d1160e31b81526001600160a01b0383811660048301528481166024830152306044830152600092169063e6a1e8889060640160806040518083038186803b1580156118a857600080fd5b505afa1580156118bc573d6000803e3d6000fd5b505050506040513d601f19601f820116820180604052508101906118e09190614767565b509095945050505050565b61190f60405180606001604052806000815260200160008152602001600081525090565b506001600160a01b03166000908152600a6020908152604091829020825160608101845281548152600182015492810192909252600201549181019190915290565b6000546001600160a01b0316331461197b5760405162461bcd60e51b815260040161075890614ae6565b600f80546001600160a01b0319166001600160a01b0392909216919091179055565b806119aa610e1042614ed6565b600080516020614fed833981519152546001600160a01b03166000908152600a60205260409020600201541015611a135760405162461bcd60e51b815260206004820152600d60248201526c2163757272656e7456616c756560981b6044820152606401610758565b60055460008052600b602052600080516020614fed833981519152546040516370a0823160e01b8152306004820152611ac0926001600160a01b0390811692169082906370a082319060240160206040518083038186803b158015611a7757600080fd5b505afa158015611a8b573d6000803e3d6000fd5b505050506040513d601f19601f82011682018060405250810190611aaf9190614207565b611abb42610e10614c39565b612df3565b506000808052600b602052600080516020614fed833981519152546040516370a0823160e01b81523060048201526001600160a01b03909116906370a082319060240160206040518083038186803b158015611b1b57600080fd5b505afa158015611b2f573d6000803e3d6000fd5b505050506040513d601f19601f82011682018060405250810190611b539190614207565b6003546000808052600b602052600080516020614fed83398151915254604051632266eabb60e21b81526001600160a01b0391821660048201523060248201526044810183905260648101859052939450909291169063899baaec90608401604080518083038186803b158015611bc957600080fd5b505afa158015611bdd573d6000803e3d6000fd5b505050506040513d601f19601f82011682018060405250810190611c0191906147a2565b50905080611c10575050919050565b600854600090620f424090611c2e906001600160801b031684614e40565b611c389190614c77565b90506000611c468284614ed6565b9050611c776040518060400160405280600d81526020016c6f757074757442616c616e636560981b81525085612cf1565b611ca56040518060400160405280600c81526020016b1858dd1d585b105b5bdd5b9d60a21b81525084612cf1565b611cd46040518060400160405280600d81526020016c1999595cd0dbdb1b1958dd1959609a1b81525083612cf1565b611d006040518060400160405280600a815260200169191a5cdd105b5bdd5b9d60b21b81525082612cf1565b6000808052600b602052600080516020614fed83398151915254611d30919085906001600160a01b031688613375565b60008052600b6020908152600080516020614fed83398151915254604080518781529283018690526001600160a01b03909116908201529095507fed4b43d1c43fa6de2432cc50d2bbc8db51d9ce0d2095d0a5cfac618764e9fe589060600160405180910390a160015b600d5460ff1663ffffffff82161015611fc75763ffffffff81166000908152600b6020526040908190205490516370a0823160e01b81523060048201526001600160a01b03909116906370a082319060240160206040518083038186803b158015611e0457600080fd5b505afa158015611e18573d6000803e3d6000fd5b505050506040513d601f19601f82011682018060405250810190611e3c9190614207565b94508415611fb5576008546001600160801b031615611ee95763ffffffff81166000908152600b6020526040902054611e8290829087906001600160a01b031689613375565b63ffffffff82166000908152600b60209081526040918290205482518981529182018790526001600160a01b03168183015290519197507fed4b43d1c43fa6de2432cc50d2bbc8db51d9ce0d2095d0a5cfac618764e9fe58919081900360600190a1611fb5565b63ffffffff81166000908152600b6020526040902060020154600654611f0f9042614ed6565b611f199190614e40565b935084841015611fb55763ffffffff81166000908152600b6020526040902054611f5090829086906001600160a01b031689613375565b63ffffffff82166000908152600b60209081526040808320548151898152928301939093526001600160a01b039092168183015290519197507fed4b43d1c43fa6de2432cc50d2bbc8db51d9ce0d2095d0a5cfac618764e9fe58919081900360600190a15b80611fbf81614f3c565b915050611d9a565b50504260065550919392505050565b600554611feb906001600160a01b03166108ce565b60005b600d5460ff1663ffffffff82161015610ed25763ffffffff81166000908152600b6020526040902054612029906001600160a01b03166108ce565b8061203381614f3c565b915050611fee565b6000546001600160a01b031633146120655760405162461bcd60e51b815260040161075890614ae6565b600054600160a81b900460ff1661208957600054600160a01b900460ff161561208d565b303b155b6120f05760405162461bcd60e51b815260206004820152602e60248201527f496e697469616c697a61626c653a20636f6e747261637420697320616c72656160448201526d191e481a5b9a5d1a585b1a5e995960921b6064820152608401610758565b600054600160a81b900460ff1615801561211a576000805461ffff60a01b191661010160a01b1790555b600f80546001600160a01b0319166001600160a01b038b1617905561214687878a88620186a088611640565b6121538484600085612288565b600f5460055460408051631dce337960e31b815290516121ee936001600160a01b03908116936000199391169163ee719bc891600480820192602092909190829003018186803b1580156121a657600080fd5b505afa1580156121ba573d6000803e3d6000fd5b505050506040513d601f19601f820116820180604052508101906121de9190614038565b6001600160a01b0316919061356c565b60055460408051631dce337960e31b8152905161223a926001600160a01b03169160001991839163ee719bc8916004808301926020929190829003018186803b1580156121a657600080fd5b60008052600b602052600080516020614fed83398151915254612269906001600160a01b03168060001961356c565b801561227d576000805460ff60a81b191690555b505050505050505050565b6000546001600160a01b031633146122b25760405162461bcd60e51b815260040161075890614ae6565b806122ed5760405162461bcd60e51b815260206004820152600b60248201526a085d985b1a5914995c525960aa1b6044820152606401610758565b6001600160a01b0384166000908152600a60205260409020541561233d5760405162461bcd60e51b815260206004820152600760248201526621756e6971756560c81b6044820152606401610758565b604080516060810182526001600160a01b038681168083526001600160801b038781166020808601918252858701898152600d805460ff9081166000908152600b85528a81208a5181546001600160a01b0319169a1699909917895594516001890180546001600160801b031916919097161790955590516002909601959095558454938252600c905294909420805491851663ffffffff199092169190911790555490916123ed911686613655565b600d805460ff1690600061240083614f60565b825460ff9182166101009390930a92830291909202199091161790555060408051606081018252838152600060208083018281528385018381526001600160a01b038b168452600a9092529390912082518155925160018401555160029092019190915561246d866108ce565b505050505050565b60606124ad6040518060400160405280601581526020017418599d195c9059dc99595b595b9d10dc99585d1959605a1b815250612728565b6124b561276b565b6124bf8a8a6127ad565b6005546001600160a01b038b811691161415806124e257506124e089612886565b155b156125265782828080601f016020809104026020016040519081016040528093929190818152602001838380828437600092019190915250929350610b4c92505050565b82828080601f01602080910402602001604051908101604052809392919081815260200183838082843760009201919091525092935061256992506129cf915050565b1561257a576125778161199d565b90505b60008061258889898e612921565b509150915061259783836136ec565b604080516080810182526001600160a01b03808516825260006020830152600b84900b92820192909252908d1660608201526125d38482612b29565b9d9c50505050505050505050505050565b6000546001600160a01b0316331461260e5760405162461bcd60e51b815260040161075890614ae6565b63ffffffff919091166000908152600b6020526040902060010180546001600160801b0319166001600160801b03909216919091179055565b6000546001600160a01b031633146126715760405162461bcd60e51b815260040161075890614ae6565b6001600160a01b0381166126d65760405162461bcd60e51b815260206004820152602660248201527f4f776e61626c653a206e6577206f776e657220697320746865207a65726f206160448201526564647265737360d01b6064820152608401610758565b610ed281612da3565b61272482826040516024016126f5929190614a75565b60408051601f198184030181529190526020810180516001600160e01b031663319af33360e01b17905261384b565b5050565b610ed28160405160240161273c91906148ac565b60408051601f198184030181529190526020810180516001600160e01b031663104c13eb60e21b17905261384b565b6001546001600160a01b0316331461163e5760405162461bcd60e51b8152602060048201526005602482015264085a1bdcdd60da1b6044820152606401610758565b6127b681612886565b15612809576005546001600160a01b038381169116146127245760405162461bcd60e51b815260206004820152600e60248201526d085a5b9c1d5d1058d8d95c1d195960921b6044820152606401610758565b6128128161386c565b15612724576001600160a01b038083166000818152600c602090815260408083205463ffffffff168352600b909152902054909116146127245760405162461bcd60e51b815260206004820152600f60248201526e085bdd5d1c1d5d1058d8d95c1d1959608a1b6044820152606401610758565b60007fa9214cc96615e0085d3bb077758db69497dc2dce3b2b1e97bc93c3d18d83efd3826001600160a01b0316637730599e6040518163ffffffff1660e01b815260040160206040518083038186803b1580156128e257600080fd5b505afa1580156128f6573d6000803e3d6000fd5b505050506040513d601f19601f8201168201806040525081019061291a9190614207565b1492915050565b6000808061293185870187614054565b50600254604051631cd43d1160e31b81526001600160a01b038781166004830152808416602483015230604483015292955091169063e6a1e8889060640160806040518083038186803b15801561298757600080fd5b505afa15801561299b573d6000803e3d6000fd5b505050506040513d601f19601f820116820180604052508101906129bf9190614767565b5094989097509095509350505050565b6003546000808052600b602052600080516020614fed833981519152546040516323fc23f360e01b81526001600160a01b03918216600482015230602482015260448101839052919283928392909116906323fc23f39060640160806040518083038186803b158015612a4157600080fd5b505afa158015612a55573d6000803e3d6000fd5b505050506040513d601f19601f82011682018060405250810190612a7991906141ac565b6005546040516370a0823160e01b8152306004820152929650909450600093506001600160a01b031691506370a082319060240160206040518083038186803b158015612ac557600080fd5b505afa158015612ad9573d6000803e3d6000fd5b505050506040513d601f19601f82011682018060405250810190612afd9190614207565b90506000612b0b8385614c0e565b6001600160801b0316118015612b215750600081115b935050505090565b8160008080612b37856138c8565b92509250925060005b600d5460ff1663ffffffff82161015612ce757612b8060405180604001604052806005815260200164092dcc8caf60db1b8152508263ffffffff16612cf1565b612bab604051806040016040528060058152602001643a37b5b2b760d91b81525087606001516126df565b855163ffffffff82166000818152600b6020526040902054612bda9288929188906001600160a01b0316613bf6565b9450612c1f858263ffffffff16612bf96000546001600160a01b031690565b63ffffffff85166000908152600b602052604090205487906001600160a01b0316613bf6565b600e548751604051630e9ebfbf60e01b81526001600160a01b039182166004820152929750612cd392889263ffffffff8616921690630e9ebfbf9060240160206040518083038186803b158015612c7557600080fd5b505afa158015612c89573d6000803e3d6000fd5b505050506040513d601f19601f82011682018060405250810190612cad9190614038565b63ffffffff85166000908152600b602052604090205486906001600160a01b0316613bf6565b945080612cdf81614f3c565b915050612b40565b5050505092915050565b6127248282604051602401612d07929190614ac4565b60408051601f198184030181529190526020810180516001600160e01b03166309710a9d60e41b17905261384b565b6000818411612d455781612d47565b835b612d519042614ed6565b612d5b9084614e40565b9050612d9c6040518060400160405280601881526020017f556e696e76657374656420616d6f756e742069733a202573000000000000000081525082612cf1565b9392505050565b600080546001600160a01b038381166001600160a01b0319831681178455604051919092169283917f8be0079c531659141344cd1fd0a4f28419497f9722a3daafe3b4186f6b6457e09190a35050565b60008060006060600080896001600160a01b031663ee719bc86040518163ffffffff1660e01b815260040160206040518083038186803b158015612e3657600080fd5b505afa158015612e4a573d6000803e3d6000fd5b505050506040513d601f19601f82011682018060405250810190612e6e9190614038565b6040516308de640f60e11b8152600481018a90529095508994506001600160a01b038b16906311bcc81e90602401600060405180830381600087803b158015612eb657600080fd5b505af1158015612eca573d6000803e3d6000fd5b50505050846001600160a01b031663313ce5676040518163ffffffff1660e01b815260040160206040518083038186803b158015612f0757600080fd5b505afa158015612f1b573d6000803e3d6000fd5b505050506040513d601f19601f82011682018060405250810190612f3f9190614826565b612f4a906012614eed565b612f5590600a614cce565b6040516370a0823160e01b81523060048201526001600160a01b038716906370a082319060240160206040518083038186803b158015612f9457600080fd5b505afa158015612fa8573d6000803e3d6000fd5b505050506040513d601f19601f82011682018060405250810190612fcc9190614207565b612fd69190614e40565b6001600160a01b03808b166000908152600a6020526040808220600190810154938f168352912001549199509061300d908a614e40565b6130179190614c77565b600754909250620f42409061302c9082614ed6565b6130369084614e40565b6130409190614c77565b9150670de0b6b3a7640000846001600160a01b031663313ce5676040518163ffffffff1660e01b815260040160206040518083038186803b15801561308457600080fd5b505afa158015613098573d6000803e3d6000fd5b505050506040513d601f19601f820116820180604052508101906130bc9190614826565b6130c790600a614cce565b6130d19084614e40565b6130db9190614c77565b9150846001600160a01b031663313ce5676040518163ffffffff1660e01b815260040160206040518083038186803b15801561311657600080fd5b505afa15801561312a573d6000803e3d6000fd5b505050506040513d601f19601f8201168201806040525081019061314e9190614826565b613159906012614eed565b61316490600a614cce565b61316e9089614c77565b604080516002808252606082018352929a50919060208301908036833701905050925084836000815181106131b357634e487b7160e01b600052603260045260246000fd5b60200260200101906001600160a01b031690816001600160a01b03168152505083836001815181106131f557634e487b7160e01b600052603260045260246000fd5b6001600160a01b039283166020918202929092010152600f546040516338ed173960e01b81529116906338ed17399061323b908b90600090889030908e90600401614b1b565b600060405180830381600087803b15801561325557600080fd5b505af1158015613269573d6000803e3d6000fd5b505050506040513d6000823e601f3d908101601f19168201604052613291919081019061409e565b506040516370a0823160e01b81523060048201526001600160a01b038516906370a082319060240160206040518083038186803b1580156132d157600080fd5b505afa1580156132e5573d6000803e3d6000fd5b505050506040513d601f19601f820116820180604052508101906133099190614207565b9050818110156133665760405162461bcd60e51b815260206004820152602260248201527f4241445f45584348414e47455f524154453a2054727920616761696e206c617460448201526132b960f11b6064820152608401610758565b9450505050505b949350505050565b80518190613472576001546003546040805160008152602081019091526001600160a01b03928316926339255d5b921690635cb398e160e11b906133c29088908b908b9060448101614a36565b60408051601f19818403018152918152602080830180516001600160e01b03166001600160e01b03199586161790528151600081529081019182905260e086901b9093169052613416929160248101614906565b600060405180830381600087803b15801561343057600080fd5b505af1158015613444573d6000803e3d6000fd5b505050506040513d6000823e601f3d908101601f1916820160405261346c9190810190614293565b5061336d565b6001546003546040805160008152602081019091526001600160a01b0392831692634329d293921690635cb398e160e11b906134b79088908b908b9060448101614a36565b60408051601f19818403018152918152602080830180516001600160e01b03166001600160e01b03199586161790528151600081529081019182905260e086901b909316905261350c92918660248201614946565b600060405180830381600087803b15801561352657600080fd5b505af115801561353a573d6000803e3d6000fd5b505050506040513d6000823e601f3d908101601f1916820160405261356291908101906142c6565b5095945050505050565b604051636eb1769f60e11b81523060048201526001600160a01b038381166024830152600091839186169063dd62ed3e9060440160206040518083038186803b1580156135b857600080fd5b505afa1580156135cc573d6000803e3d6000fd5b505050506040513d601f19601f820116820180604052508101906135f09190614207565b6135fa9190614c39565b604080516001600160a01b038616602482015260448082018490528251808303909101815260649091019091526020810180516001600160e01b031663095ea7b360e01b17905290915061364f908590613d00565b50505050565b6001546003546040805160008152602081019091526001600160a01b03928316926339255d5b921690636bc3c20560e11b90613698908690889060448101614a06565b60408051601f19818403018152918152602080830180516001600160e01b03166001600160e01b03199586161790528151600081529081019182905260e086901b90931690526107f2929160248101614906565b600154604051631fb6491d60e11b81526000916001600160a01b031690633f6c923a9061371d9086906004016148ac565b60006040518083038186803b15801561373557600080fd5b505afa158015613749573d6000803e3d6000fd5b505050506040513d6000823e601f3d908101601f191682016040526137719190810190614643565b9050606060008260a001515111156137a2578160a0015180602001905181019061379b91906145fd565b90506137b3565b506040805160208101909152600081525b6137e16040518060400160405280600c81526020016b1059999a5b1a585d1948125160a21b81525082613dd2565b600e54604051634a2f43a560e01b81526001600160a01b0390911690634a2f43a5906138139086908590600401614888565b600060405180830381600087803b15801561382d57600080fd5b505af1158015613841573d6000803e3d6000fd5b5050505050505050565b80516a636f6e736f6c652e6c6f67602083016000808483855afa5050505050565b60007f8aedc3b5d4bf031e11a7e2940f7251c005698405d58e02e1c247fed3b1b3a674826001600160a01b0316637730599e6040518163ffffffff1660e01b815260040160206040518083038186803b1580156128e257600080fd5b60608101516001600160a01b03166000908152600c6020526040812054819081906139059063ffffffff166102196000546001600160a01b031690565b50935061391a9150633b9aca00905083614e11565b600e548551604051630e9ebfbf60e01b81526001600160a01b039182166004820152929450600092911690630e9ebfbf9060240160206040518083038186803b15801561396657600080fd5b505afa15801561397a573d6000803e3d6000fd5b505050506040513d601f19601f8201168201806040525081019061399e9190614038565b90506001600160a01b038116156139f45760608501516001600160a01b03166000908152600c60205260409020546139dc9063ffffffff16826105e8565b5093506139f19150633b9aca00905083614e11565b91505b600085602001518660400151613a0a9190614e5f565b905060008082600b0b1315613ae457600854620f424090613a38906001600160801b0316600b85900b614e40565b613a429190614c77565b90506001600160a01b03831615613ad357600854620f424090613a7590600160801b90046001600160801b031682614eae565b613a7f9083614e11565b613a899190614c51565b613a939086614c0e565b600854909550620f424090613ab890600160801b90046001600160801b031683614e11565b613ac29190614c51565b613acc9085614c0e565b9350613bb3565b613add8186614c0e565b9450613bb3565b613af082600019614d7b565b600854909250620f424090613b12906001600160801b0316600b85900b614e40565b613b1c9190614c77565b90506001600160a01b03831615613ba657600854620f424090613b4f90600160801b90046001600160801b031682614eae565b613b599083614e11565b613b639190614c51565b613b6d9086614eae565b600854909550620f424090613b9290600160801b90046001600160801b031683614e11565b613b9c9190614c51565b613acc9085614eae565b613bb08186614eae565b94505b600854620f424090613bce906001600160801b031682614eae565b8860400151600b0b613be09190614e11565b613bea9190614c51565b95505050509193909250565b60015460035486916001600160a01b0390811691634329d2939116630465a56b60e31b858989613c2a633b9aca008b614c51565b604080516000815260208101909152613c4a9493929190604481016149c4565b60408051601f19818403018152918152602080830180516001600160e01b03166001600160e01b03199586161790528151600081529081019182905260e086901b9093169052613c9f92918660248201614946565b600060405180830381600087803b158015613cb957600080fd5b505af1158015613ccd573d6000803e3d6000fd5b505050506040513d6000823e601f3d908101601f19168201604052613cf591908101906142c6565b509695505050505050565b6000613d55826040518060400160405280602081526020017f5361666545524332303a206c6f772d6c6576656c2063616c6c206661696c6564815250856001600160a01b0316613e179092919063ffffffff16565b8051909150156108485780806020019051810190613d739190614146565b6108485760405162461bcd60e51b815260206004820152602a60248201527f5361666545524332303a204552433230206f7065726174696f6e20646964206e6044820152691bdd081cdd58d8d9595960b21b6064820152608401610758565b6127248282604051602401613de8929190614a9f565b60408051601f198184030181529190526020810180516001600160e01b0316634b5c427760e01b17905261384b565b606061336d848460008585843b613e705760405162461bcd60e51b815260206004820152601d60248201527f416464726573733a2063616c6c20746f206e6f6e2d636f6e74726163740000006044820152606401610758565b600080866001600160a01b03168587604051613e8c919061486c565b60006040518083038185875af1925050503d8060008114613ec9576040519150601f19603f3d011682016040523d82523d6000602084013e613ece565b606091505b5091509150610f0e82828660608315613ee8575081612d9c565b825115613ef85782518084602001fd5b8160405162461bcd60e51b815260040161075891906148ac565b6000613f25613f2084614be6565b614bb5565b9050828152838383011115613f3957600080fd5b612d9c836020830184614f10565b8051613f5281614fc2565b919050565b80518015158114613f5257600080fd5b80516001600160e01b031981168114613f5257600080fd5b60008083601f840112613f90578182fd5b50813567ffffffffffffffff811115613fa7578182fd5b602083019150836020828501011115613fbf57600080fd5b9250929050565b600082601f830112613fd6578081fd5b612d9c83835160208501613f12565b8051600b81900b8114613f5257600080fd5b803563ffffffff81168114613f5257600080fd5b805160ff81168114613f5257600080fd5b60006020828403121561402d578081fd5b8135612d9c81614fc2565b600060208284031215614049578081fd5b8151612d9c81614fc2565b60008060408385031215614066578081fd5b823561407181614fc2565b9150602083013561408181614fc2565b809150509250929050565b60008060408385031215614066578182fd5b600060208083850312156140b0578182fd5b825167ffffffffffffffff808211156140c7578384fd5b818501915085601f8301126140da578384fd5b8151818111156140ec576140ec614fac565b8060051b91506140fd848301614bb5565b8181528481019084860184860187018a1015614117578788fd5b8795505b8386101561413957805183526001959095019491860191860161411b565b5098975050505050505050565b600060208284031215614157578081fd5b612d9c82613f57565b60008060008060808587031215614175578182fd5b61417e85613f57565b935061418c60208601613f57565b9250604085015161419c81614fd7565b6060959095015193969295505050565b600080600080608085870312156141c1578182fd5b6141ca85613f57565b935060208501516141da81614fd7565b60408601519093506141eb81614fd7565b60608601519092506141fc81614fd7565b939692955090935050565b600060208284031215614218578081fd5b5051919050565b600060208284031215614230578081fd5b813567ffffffffffffffff811115614246578182fd5b8201601f81018413614256578182fd5b8035614264613f2082614be6565b818152856020838501011115614278578384fd5b81602084016020830137908101602001929092525092915050565b6000602082840312156142a4578081fd5b815167ffffffffffffffff8111156142ba578182fd5b61336d84828501613fc6565b600080604083850312156142d8578182fd5b825167ffffffffffffffff808211156142ef578384fd5b6142fb86838701613fc6565b93506020850151915080821115614310578283fd5b5061431d85828601613fc6565b9150509250929050565b600080600080600080600060a0888a031215614341578485fd5b873561434c81614fc2565b9650602088013561435c81614fc2565b955060408801359450606088013567ffffffffffffffff8082111561437f578485fd5b61438b8b838c01613f7f565b909650945060808a01359150808211156143a3578384fd5b506143b08a828b01613f7f565b989b979a50959850939692959293505050565b600080600080600080600080600060c08a8c0312156143e0578283fd5b89356143eb81614fc2565b985060208a01356143fb81614fc2565b975060408a0135965060608a013567ffffffffffffffff8082111561441e578485fd5b61442a8d838e01613f7f565b909850965060808c0135915080821115614442578485fd5b61444e8d838e01613f7f565b909650945060a08c0135915080821115614466578384fd5b506144738c828d01613f7f565b915080935050809150509295985092959850929598565b6000806000806080858703121561449f578182fd5b84356144aa81614fc2565b935060208501356144ba81614fd7565b93969395505050506040820135916060013590565b60008060008060008060c087890312156144e7578384fd5b86356144f281614fc2565b955060208701359450604087013561450981614fc2565b935060608701359250608087013561452081614fd7565b915060a087013561453081614fd7565b809150509295509295509295565b600080600080600080600080610100898b03121561455a578182fd5b883561456581614fc2565b9750602089013561457581614fc2565b9650604089013561458581614fc2565b9550606089013594506080890135935060a08901356145a381614fc2565b925060c08901356145b381614fd7565b8092505060e089013590509295985092959890939650565b6000602082840312156145dc578081fd5b5035919050565b6000602082840312156145f4578081fd5b612d9c82613fe5565b60006020828403121561460e578081fd5b815167ffffffffffffffff811115614624578182fd5b8201601f81018413614634578182fd5b61336d84825160208401613f12565b600060208284031215614654578081fd5b815167ffffffffffffffff8082111561466b578283fd5b90830190610160828603121561467f578283fd5b614687614b8b565b6146908361400b565b815261469e6020840161400b565b6020820152604083015160408201526146b960608401613f47565b60608201526146ca60808401613f67565b608082015260a0830151828111156146e0578485fd5b6146ec87828601613fc6565b60a08301525060c083015160c082015260e083015160e0820152610100915081830151828201526101209150614723828401613f47565b828201526101409150614737828401613f47565b91810191909152949350505050565b60008060408385031215614758578182fd5b50508035926020909101359150565b6000806000806080858703121561477c578182fd5b8451935061478c60208601613fe5565b6040860151606090960151949790965092505050565b600080604083850312156147b4578182fd5b82519150602083015161408181614fd7565b6000602082840312156147d7578081fd5b612d9c82613ff7565b600080604083850312156147f2578182fd5b61407183613ff7565b6000806040838503121561480d578182fd5b61481683613ff7565b9150602083013561408181614fd7565b600060208284031215614837578081fd5b612d9c8261400b565b60008151808452614858816020860160208601614f10565b601f01601f19169290920160200192915050565b6000825161487e818460208701614f10565b9190910192915050565b6001600160a01b038316815260406020820181905260009061336d90830184614840565b602081526000612d9c6020830184614840565b6001600160a01b03831681526060602082018190526000906148e390830184614840565b8281036040938401526002815261060f60f31b6020820152919091019392505050565b6001600160a01b038416815260606020820181905260009061492a90830185614840565b828103604084015261493c8185614840565b9695505050505050565b6001600160a01b038516815260806020820181905260009061496a90830186614840565b828103604084015261497c8186614840565b90508281036060840152610f0e8185614840565b6001600160a01b03858116825284811660208301528316604082015260806060820181905260009061493c90830184614840565b6001600160a01b03868116825260208201869052841660408201526001600160801b038316606082015260a060808201819052600090610f0e90830184614840565b60018060a01b0384168152826020820152606060408201526000614a2d6060830184614840565b95945050505050565b6001600160a01b038516815263ffffffff841660208201526001600160801b038316604082015260806060820181905260009061493c90830184614840565b604081526000614a886040830185614840565b905060018060a01b03831660208301529392505050565b604081526000614ab26040830185614840565b8281036020840152614a2d8185614840565b604081526000614ad76040830185614840565b90508260208301529392505050565b6020808252818101527f4f776e61626c653a2063616c6c6572206973206e6f7420746865206f776e6572604082015260600190565b600060a082018783526020878185015260a0604085015281875180845260c0860191508289019350845b81811015614b6a5784516001600160a01b031683529383019391830191600101614b45565b50506001600160a01b03969096166060850152505050608001529392505050565b604051610160810167ffffffffffffffff81118282101715614baf57614baf614fac565b60405290565b604051601f8201601f1916810167ffffffffffffffff81118282101715614bde57614bde614fac565b604052919050565b600067ffffffffffffffff821115614c0057614c00614fac565b50601f01601f191660200190565b60006001600160801b03808316818516808303821115614c3057614c30614f80565b01949350505050565b60008219821115614c4c57614c4c614f80565b500190565b60006001600160801b0380841680614c6b57614c6b614f96565b92169190910492915050565b600082614c8657614c86614f96565b500490565b600181815b80851115614cc6578160001904821115614cac57614cac614f80565b80851615614cb957918102915b93841c9390800290614c90565b509250929050565b6000612d9c60ff841683600082614ce757506001614d75565b81614cf457506000614d75565b8160018114614d0a5760028114614d1457614d30565b6001915050614d75565b60ff841115614d2557614d25614f80565b50506001821b614d75565b5060208310610133831016604e8410600b8410161715614d53575081810a614d75565b614d5d8383614c8b565b8060001904821115614d7157614d71614f80565b0290505b92915050565b600081600b0b83600b0b60016001605f1b0383821384841383830485118282161615614da957614da9614f80565b6b7fffffffffffffffffffffff1986851282811687830587121615614dd057614dd0614f80565b878712925085820587128484161615614deb57614deb614f80565b85850587128184161615614e0157614e01614f80565b5050509290910295945050505050565b60006001600160801b0380831681851681830481118215151615614e3757614e37614f80565b02949350505050565b6000816000190483118215151615614e5a57614e5a614f80565b500290565b600081600b0b83600b0b8281128160016001605f1b031901831281151615614e8957614e89614f80565b8160016001605f1b03018313811615614ea457614ea4614f80565b5090039392505050565b60006001600160801b0383811690831681811015614ece57614ece614f80565b039392505050565b600082821015614ee857614ee8614f80565b500390565b600060ff821660ff841680821015614f0757614f07614f80565b90039392505050565b60005b83811015614f2b578181015183820152602001614f13565b8381111561364f5750506000910152565b600063ffffffff80831681811415614f5657614f56614f80565b6001019392505050565b600060ff821660ff811415614f7757614f77614f80565b60010192915050565b634e487b7160e01b600052601160045260246000fd5b634e487b7160e01b600052601260045260246000fd5b634e487b7160e01b600052604160045260246000fd5b6001600160a01b0381168114610ed257600080fd5b6001600160801b0381168114610ed257600080fdfedf7de25b7f1fd6d0b5205f0e18f1f35bd7b8d84cce336588d184533ce43a6f76a26469706673582212203652a30ca34e0bc0c64076cbb39d7609fc06c1e960cfdcce21f7ed9a0d43027a64736f6c63430008040033",
  "linkReferences": {},
  "deployedLinkReferences": {}
}